:100000000C94CD080C9405090C9405090C94050971
:100010000C9405090C9405090C9405090C94050928
:100020000C9405090C9405090C940A1D0C94C61C2B
:100030000C94B42C0C9405090C9405090C94050936
:100040000C9405090C9405090C9405090C940509F8
:100050000C94DB2C0C94E31D0C9405090C940509FD
:100060000C9405090C9405090C9405090C940509D8
:100070000C9405090C9405090C9405090C940509C8
:100080000C9405090C9405090C9405090C940509B8
:100090000C9405090C9405090C9405090C940509A8
:1000A0000C9405090C9405090C94050905010980B7
:1000B000A101850319012AB700150126B700950192
:1000C00075108100C0050C0901A101850419012AE0
:1000D000A002150126A002950175108100C005013E
:1000E0000906A1018506050719E029E71500250184
:1000F0009508750181020507190029EF15002501F2
:1001000095F075018102050819012905950575010C
:100110009102950175039101C00660FF0961A1017B
:100120000962150026FF00952075088102096315F4
:100130000026FF00952075089102C005010906A15F
:1001400001050719E029E7150025019508750181CA
:10015000029501750881010507190029FF15002680
:10016000FF00950675088100050819012905950508
:1001700075019102950175039101C007087F080779
:10018000003E5B4F5B3E003E6B4F6B3E001C3E7C77
:100190003E1C00183C7E3C18001C577D571C001C60
:1001A0005E7F5E1C0000183C180000FFE7C3E7FFFD
:1001B00000001824180000FFE7DBE7FF0030483A92
:1001C000060E00262979292600407F0505070040F4
:1001D0007F05253F005A3CE73C5A007F3E1C1C0827
:1001E00000081C1C3E7F0014227F2214005F5F0069
:1001F0005F5F0006097F017F00006689956A0060E5
:10020000606060600094A2FFA2940008047E04086D
:100210000010207E20100008082A1C0800081C2A54
:100220000808001E10101010000C1E0C1E0C0030D0
:10023000383E383000060E3E0E060000000000007A
:100240000000005F000000000700070000147F149A
:100250007F1400242A7F2A120023130864620036C8
:100260004956205000000807030000001C224100EE
:10027000000041221C00002A1C7F1C2A0008083EA6
:100280000808000080703000000808080808000016
:1002900000606000002010080402003E5149453E05
:1002A0000000427F4000007249494946002141490F
:1002B0004D33001814127F10002745454539003C86
:1002C0004A49493100412111090700364949493657
:1002D00000464949291E0000001400000000403477
:1002E000000000000814224100141414141400002B
:1002F00041221408000201590906003E415D594E91
:10030000007C1211127C007F49494936003E414170
:100310004122007F4141413E007F49494941007FE0
:1003200009090901003E41415173007F0808087F17
:100330000000417F4100002040413F01007F081440
:100340002241007F40404040007F021C027F007F2E
:100350000408107F003E4141413E007F0909090623
:10036000003E4151215E007F091929460026494976
:1003700049320003017F0103003F4040403F001F1E
:100380002040201F003F4038403F006314081463A2
:10039000000304780403006159494D4300007F4184
:1003A000414100020408102000004141417F000447
:1003B00002010204004040404040000003070800E2
:1003C000002054547840007F284444380038444486
:1003D000442800384444287F0038545454180000FE
:1003E000087E09020018A4A49C78007F0804047801
:1003F0000000447D4000002040403D00007F102868
:1004000044000000417F4000007C04780478007CB8
:100410000804047800384444443800FC18242418A4
:100420000018242418FC007C0804040800485454D4
:1004300054240004043F4424003C4040207C001C21
:100440002040201C003C4030403C00442810284400
:10045000004C9090907C004464544C44000008365A
:100460004100000000770000000041360800000253
:1004700001020402003C2623263C0000000000008C
:1004800000404040F0F8F8FF38FFF8F83FF8F8FF78
:1004900038FFF8F8F040404000000000000080C045
:1004A000C0C0800000C0C08000000080C0C000C08C
:1004B000C0000080C0C00000000000C0C0C0C0C0BC
:1004C00000C0C000000000000000000000000000AC
:1004D000000000000000000000000000000000001C
:1004E000000000000000000000000000000000000C
:1004F00000000000000000000000C0F0F8FC3E1EFC
:1005000006010000007F4141417F007F4141417F62
:10051000000080C0E07E5B4F5BFEC00000C000DCDE
:10052000D7DEDEDED7DC00C00000000000000000E7
:1005300000000000000000000000000000000000BB
:1005400000494949FFFFFFFFE0DFBFBF00BFBFDF3A
:10055000E0FFFFFFFF49494900000000001F3F6026
:1005600060E0BF1F007F7F071E381E077F7F007F70
:100570007F0E1F3B716000000000007F7F0C0C0CA1
:10058000007E7E007F7E0303007F7E03037E7E036A
:10059000037F7E000F3E703C063C703E0F00327BB6
:1005A00049493F7E007F7E0303001E3F69696F2635
:1005B00000000000000000000000030F1F3F3C7817
:1005C00070600000007F4141417F007F4141417FD9
:1005D00000307B7F7830202030787F3B0003000F95
:1005E0007F0F0F0F7F0F00030000000000000000CE
:1005F00000000000000000000000000000000000FB
:1006000000010101070F0F7F0F7F0F0F7E0F0F7F7C
:100610000F7F0F0F07010101000000000000000024
:1006200000000101000000000000000000000000C8
:1006300000000000000000000000000000000000BA
:1006400000000000000000000000000000000000AA
:10065000000000000000000000000000000000009A
:10066000000000000000000000000000000000008A
:10067000000000000000000000000000000000007A
:10068000000000000000000000000000000000006A
:10069000000000000000000000000000000000005A
:1006A000000000000000000000000000000000004A
:1006B0000000000000000000000000C1C1C20408EA
:1006C00010C03804030000A02224141212A021221A
:1006D000121111837C4141404082828408102080A5
:1006E000800000000080701906000080700C03007C
:1006F000008000303000C0800030300000498808A1
:100700000808004484040400004080000000004009
:1007100040202020203CC20101020235018A7C00D9
:100720000020408000000020212212111120201002
:100730001010101EE1000001011CE201010202186C
:10074000648202020218608000000018181B030077
:1007500040180605989984120B0808080811090822
:100760000808081010D0110F21101010110F0110DF
:1007700008080404041008040202040C304080003D
:10078000000C0C0D01004008E80807102408304058
:100790008000000808080700000808040202020898
:1007A0000402010102050509091010043840800007
:1007B00000040408081010040404040404040402DF
:1007C0000100000202818080000202040408080285
:1007D000020201010102020100000001E11A060902
:1007E00031010102040810010000000000008080B7
:1007F0000000000080404020200000808040400039
:100800000060600081000001010040000000000065
:100810001800000000000C000000000003000000B1
:100820000000010000000000003C34131E23162FBE
:10083000333C090011013921031B291D322D243CB1
:100840003C3C3C3C34131E23162F333C0900110161
:100850003921031B291D322D243C3C3C3C3C350EE8
:100860001F170F2B3C3C36050D073818021A271DA1
:10087000322D243C3C3C3C0634132620142F333CC0
:10088000090011083921031B291D322D243C3C3C51
:100890003C3C34132528152F333C0900110839211D
:1008A000031B291D322D243C3C3C3C0634132620DE
:1008B000142C333C0A3010081904121B2A2E323C27
:1008C0003C3C3C3C3C0634132620142C333C0A317F
:1008D00011081904121B291C0B3C3C3C3C3A3B06FA
:1008E00034132620142F333C0A3010083C37031BE6
:1008F0002A2E322D220C3C3C3C000000000000005F
:1009000000000000000000000000000000000000E7
:10091000000000000000000000000000007E0F004A
:10092000D4FFFFFFC70000007800000000000000B7
:10093000002A2B280000000000000000000000003A
:100940000000000029000000002C1E342021222479
:10095000342627252E362D3738271E1F2021222307
:100960002425263333362E37381F04050607080999
:100970000A0B0C0D0E0F101112131415161718195F
:100980001A1B1C1D2F3130232D35040506070809BD
:100990000A0B0C0D0E0F101112131415161718193F
:1009A0001A1B1C1D2F3130354C00000000000000C8
:1009B0000000000000000000000000000000000037
:1009C0000000000000000000000000000000000027
:1009D0000000000080808000000000000000000097
:1009E0000000000000000000000000000000000007
:1009F00000000000F01C06020203038383838303CC
:100A000003030383838383830303038383830303B6
:100A10000303030383838383030202060CF80000AD
:100A200000000000000000000000000000000000C6
:100A300000000000000000000080000000000080B6
:100A400000000080000000000000808000000080A6
:100A500080F8FE87E1BF9F000000008000000000DA
:100A60000000008000000080000000000080000006
:100A700000000000FF000000000000FFFFFF3FFC3F
:100A8000E0C0F87F0FFFFF00000000FFFFFF80C005
:100A9000F0F83C1F0F0301000000000000FF000001
:100AA0000000000000000000000000000000000046
:100AB0000000000000FCFEC783838FC6C0FEFFC796
:100AC000C0F0FFFF81C0E0709E8FBFF8F080C1E3EF
:100AD0007FFFFF838383C1FCFEFF8383DFFF7E18DC
:100AE00018FEFFFB1C06FFFFFF3C0EE7FFFF80C068
:100AF000E0600000FF000000000000FFFFFF0001B9
:100B00000F0F030000FFFF00000000FFFFFF0703BF
:100B1000030F3F7CF8E080000000000000FF0000B1
:100B200000000000000000000000000000000000C5
:100B300000000000000001010101010100010101AC
:100B40000000010101010000010303010101000097
:100B5000000001010101010001010101010000008B
:100B6000000101000000010101000000010101017C
:100B7000000000000F3820404040404343434040C5
:100B80004040404040434340404040434343404056
:100B9000404040404143434340404060301F0000DC
:100BA00000000000000000000000DA0281FFD9F11F
:100BB000DB20A4A62EAF00A0C000A1C800AED58047
:100BC000A81FD300408D14200000AE1E0F050004A6
:100BD0007F3F1F643214643214783C1E1E140A05D1
:100BE00000010101010101010101020202020202F0
:100BF00002020203030303030303030404040404C3
:100C00000404050505050506060606060707070789
:100C10000708080808090909090A0A0A0B0B0B0C3E
:100C20000C0C0D0D0D0E0E0E0F0F0F1010111111DB
:100C3000121213131414151516161717181819195C
:100C40001A1A1B1B1C1D1D1E1E1F202021222223C1
:100C50002424252626272829292A2B2C2D2D2E2F02
:100C600030313232333435363738393A3B3C3D3E19
:100C70003F404142434445464748494A4C4D4E4F08
:100C800050515354555658595A5B5D5E5F616264CA
:100C9000656668696B6C6D6F7072737577787A7B57
:100CA0007D7E8082838587888A8C8E8F91939596AE
:100CB000989A9C9EA0A2A3A5A7A9ABADAFB1B3B5CE
:100CC000B7BABCBEC0C2C4C6C9CBCDCFD1D4D6D8AA
:100CD000DBDDDFE2E4E7E9EBEEF0F3F5F8FAFDFF48
:100CE000FFAA7F55402223252628292A2C2D2F3084
:100CF00032333536383A3B3D3E4042434547494A18
:100D00004C4E5051535557595A5C5E606264666848
:100D1000696B6D6F71737577797B7D7F8183858753
:100D2000898A8C8E90929496989A9C9E9FA1A3A556
:100D3000A7A8AAACAEAFB1B3B4B6B8B9BBBCBEBF7E
:100D4000C1C2C3C5C6C7C9CACBCCCDCED0D1D2D201
:100D5000D3D4D5D6D7D7D8D9D9DADADBDBDBDCDC0C
:100D6000DCDCDCDDDDDDDDDCDCDCDCDCDBDBDBDAC4
:100D7000DAD9D9D8D7D7D6D5D4D3D2D2D1D0CECD2F
:100D8000CCCBCAC9C7C6C5C3C2C1BFBEBCBBB9B83C
:100D9000B6B4B3B1AFAEACAAA8A7A5A3A19F9E9CC1
:100DA0009A98969492908E8C8A89878583817F7D8C
:100DB0007B79777573716F6D6B6968666462605E6D
:100DC0005C5A5957555351504E4C4A494745434236
:100DD000403E3D3B3A3836353332302F2D2C2A29D0
:100DE000282625232200000000000000000000004B
:100DF00001010203040506080A0C0F1114181C2037
:100E000024292E33393F464C535B626A7179818ABB
:100E1000929AA2AAB2B9C1C8CFD5DCE1E7EBF0F44F
:100E2000F7FAFCFDFEFFFEFDFCFAF7F4F0EBE7E15C
:100E3000DCD5CFC8C1B9B2AAA29A928A8179716A67
:100E4000625B534C463F39332E2924201C18141161
:100E50000F0C0A080605040302010100000000004F
:100E6000000000000000AF165C1F002000210022DF
:100E700000230024002500260027002D002E002A34
:100E8000004C0014001A000800150017001C001880
:100E9000000C00120013002F00300031004B003B0B
:100EA0000004001600070009000A000B000D000EE8
:100EB000000F003300340028004E00E1001D001B2D
:100EC0000006001900050011001000360037003838
:100ED00000E50052004D00E3003E00E2003F003D0F
:100EE000002C003C00AA00E600E400A900500051DC
:100EF000004F001E002B0039000000E0003A000007
:100F000000000000000000000000000000000000E1
:100F10005C3B003C003D003E003F00400041004281
:100F200000430044004500010001000100310001C0
:100F300000010001000100010001000100010001A9
:100F4000000100010001004100BF5CC05CC15C0108
:100F50000001000100010001000100010001000189
:100F60000001000100C25CC35CC45CC95CCA5CC512
:100F70005CC65C01000100010001000100010001EC
:100F8000004400010045004300010042000100014F
:100F900000010001000100010001003A0001000110
:100FA00000000001004000010000000000000000FF
:100FB000000000000000000100010001000100012C
:100FC0000001000100010001000100010001000119
:100FD0000001000100010001000100010001000109
:100FE00000010001000100010001000100010001F9
:100FF00000010001000100010001000100010001E9
:1010000000010001000100010001000100010001D8
:1010100000010001000100010001000100010001C8
:1010200000010001000100010001000100010001B8
:1010300000010001000100010001000100010001A8
:101040000001000100010001000000010001000199
:10105000000000000000000000000000000000018F
:101060000001000100010001000100010001000178
:101070000001000100010001000100010001000168
:101080000001000100010001000100010001000158
:101090000001000100010001000100010001000148
:1010A0000001000100010001000100010001000138
:1010B0000001000100010001000100010001000128
:1010C0000001000100010001000100010001000118
:1010D0000001000100010001000100010001000108
:1010E00000010001000100010001000100010001F8
:1010F00000000001000100010000000000000000ED
:101100000000000000000009025B00030100A0FADB
:10111000090400000103010100092111010001225D
:1011200040000705810308000109040100020300D3
:10113000000009211101000122220007058203207D
:101140000001070503032000010904020001030058
:101150000000092111010001226D00070584032010
:10116000000112010002000000085BF3B5FA010063
:10117000010200010C03450056004F00370030000B
:101180000000120363007500730074006F006D00AF
:101190004D004B0000000403090411241FBECFEFD3
:1011A000DAE0DEBFCDBF04B603FE18C0809195071C
:1011B00090919607A0919707B09198078730904B30
:1011C000A740B04B59F410929507109296071092D1
:1011D000970710929807E0E0F8E3099527E0AEE959
:1011E000B2E001C01D92A539B207E1F712E0A0E01C
:1011F000B1E0E0E6FEE602C005900D92AE39B1071F
:10120000D9F70E945C2D0C94FE360C940000E8ED9A
:10121000F0E080818E7F80831092E2001092DA00ED
:101220001092E100A0EEB0E08C9181608C938081FF
:101230008F77808319BCA7EDB0E08C918E7F8C9363
:1012400080818F7E80831092620708952091E40050
:101250003091E50095E6A9012091EC00822F817084
:1012600020FF06C08091E80080FF06C080E008955E
:101270002091E80022FD1AC080918707882389F019
:10128000853089F08091EB0085FD0FC02091E4004E
:101290003091E50042175307F9F29150E1F684E0EE
:1012A000089582E0089583E0089581E00895EF9223
:1012B000FF920F931F93CF937C018B010E9426090D
:1012C000C82F811117C08091E80085FD0BC0809167
:1012D000E8008E778093E8000E942609882399F31E
:1012E000C82F08C0F70181917F018093F100015060
:1012F000110949F78C2FCF911F910F91FF90EF901B
:1013000008958091890787FF13C08091E80082FFCC
:1013100006C08091E8008B778093E80004C080913C
:1013200087078111F2CF0895809187078823D9F329
:101330008091E80080FFF8CF8091E8008E77ECCFB5
:10134000982F9093E900242F762F50E0891731F0E1
:101350007091EC002091ED005091F00021FD07C04C
:101360009F5F973071F78093E90081E00895309195
:10137000EB003E7F3093EB003091ED003D7F3093EA
:10138000ED003091EB0031603093EB007093EC0096
:101390002093ED005093F0002091EE0027FDE0CF68
:1013A00080E00895CF92DF92EF92FF920F931F9308
:1013B000CF93DF93C8EDD0E088818F7E8883E7EDFF
:1013C000F0E080818160808384E082BF81E080934F
:1013D000620788818E7F888302EE10E0F801108218
:1013E0001092DA0081EEC82ED12CF601108288818D
:1013F0008F77888388818068888388818F7D8883C0
:1014000019BC1092870710928807109286071092D5
:10141000850790EEE92EF12CF70180818B7F808388
:1014200088818160888342E060E080E00E94A009BA
:10143000F60180818E7F8083F801808181608083C6
:10144000808188608083F70180818E7F808388819E
:1014500080618883DF91CF911F910F91FF90EF9072
:10146000DF90CF900895FC0180918F0790919007B5
:1014700086179707A0F06115710529F49091E8008F
:101480009E779093E80090E06115710551F49111F9
:1014900008C08091E80082FF34C080E00895BC015C
:1014A000F2CF809187078823C1F18530C1F1809107
:1014B000E80083FD30C08091E80082FDEACF809192
:1014C000E80080FFE1CF8091F3002091F200382FF7
:1014D0006115710519F02830310558F091E0283078
:1014E000310509F090E02091E8002E772093E80084
:1014F000CBCF81918093F100615071092F5F3F4FF5
:10150000E7CF80918707882341F0853041F08091B3
:10151000E80083FFBECF81E0089582E0089583E074
:1015200008950895089508958091640708952FB748
:10153000F8946091590770915A0780915B079091D8
:101540005C072FBF0895209137012223C9F0209115
:101550005D0727FF15C0E62FE695E695E695EE3187
:10156000D8F4E80FF92FF11D677021E030E001C0D9
:10157000220F6A95EAF72095828128232283089515
:10158000FC01329608962191621303C0DF01119786
:101590001C92E817F907B9F7089520913701222323
:1015A000C1F020915D0727FF14C0E62FE695E69570
:1015B000E695EE31F8F4E80FF92FF11D677021E0A0
:1015C00030E001C0220F6A95EAF78281822B828384
:1015D0000895FC0132962FEF30E04191641751F0ED
:1015E0002F3F19F4411101C0232F3F5F3630A9F777
:1015F0002F3F09F40895820F911D27FD9A95FC0154
:1016000062830895209156073091570728173907AC
:1016100071F09093570780935607E0915407F0912B
:101620005507309721F00084F185E02D0994089545
:1016300020915207309153072817390771F0909382
:10164000530780935207E0915407F0915507309764
:1016500021F00680F781E02D09940895E091540768
:10166000F0915507309721F00190F081E02D099419
:1016700080E0089530914F078317A0F590E0262F62
:10168000269526952695239F800D911D1124811561
:1016900022E092073CF5FC01E15BFA4F5081677054
:1016A00021E030E001C0220F6A95EAF74423D9F027
:1016B000252B2517B9F0208325E0969587952A9547
:1016C000E1F721E030E002C0220F331F8A95E2F7F4
:1016D00080914D0590914E05822B932B90934E0552
:1016E00080934D05089520952523E3CF1F93CF9335
:1016F000DF93182FC62FD62FD40FCD1304C0DF9140
:10170000CF911F91089541E06C2F812F0E943A0BD9
:10171000CF5FF3CFCF92DF92EF92FF920F931F93A1
:10172000CF93DF93082F10E0E8017801E60EF11C5B
:10173000670181E0C81AD108CE15DF054CF0DF91B2
:10174000CF911F910F91FF90EF90DF90CF90089570
:101750008C2F0C171D0719F0CC15DD0531F449E06D
:1017600064E10E94760B2196E7CF4BE063E1F9CF6D
:101770001F93CF93DF93C82F162F47E062E00E949C
:10178000760B47E062E084E08C0F0E94760B43E02A
:1017900064E082E08C0F0E94760BD3E0DC0FCF5F19
:1017A00045E063E0112359F08C2F0E94760B41E055
:1017B00065E08D2FDF91CF911F910C943A0B8D2F07
:1017C0000E94760B41E065E08C2FF4CF10924C051F
:1017D00010924B0510924A05EFE6F0E0808181609F
:1017E000808308958F929F92AF92BF92CF92DF92A3
:1017F000EF92FF920F931F93CF93DF938C01809111
:101800008600909187006CE070E00E946F35601751
:10181000710798F0C80169E070E00E946F35CB0154
:10182000DF91CF911F910F91FF90EF90DF90CF90BC
:10183000BF90AF909F908F90089580918600909177
:101840008700E0908600F0908700C0908600D090DE
:101850008700C6E0D0E0BE010E946F3530E020E096
:10186000060F171F211D311D4801590185E0880C05
:10187000991CAA1CBB1C8A95D1F7C701BE010E9406
:101880006F35F12CE12CA7019601260F371F411D62
:10189000511DC501B4010E94CD3669017A01E09164
:1018A0008600F0918700CA01B9010E9483359B012F
:1018B000AC01DF010E94BA369B01AC01C701B60141
:1018C0000E9483352FE096958795779567952A95A1
:1018D000D1F7009186001091870030E020E00617D4
:1018E00017072807390708F09ACF60918600709192
:1018F000870095CF8231F0F481111DC09091800056
:101900009F73909380002D9AA0918600B0918700DC
:10191000282F30E00E94EF3621E130E040E050E037
:101920000E94CD36C9010E94F20B909389008093EA
:101930008800089581E190918000906C90938000E0
:10194000E3CFEFE6F0E080818E7F808380914905D0
:101950008695869586950C947A0C282F220F220F57
:10196000220F909149059770922B90934905987F8B
:1019700021E009F420E09091490520FB90F9909333
:1019800049050C947A0CFA01811101C0FB010994FC
:1019900080914405982F9E7F61F4817082608093CE
:1019A000440580914705813818F080E88093470509
:1019B00008958635B0F381708465F1CFAF92BF9200
:1019C000DF92EF92FF920F931F93CF93DF93182F25
:1019D000062FE901413808F040E8E42FF0E0E0523A
:1019E000F44F011110C0E4915E2F4E2F4983E8831C
:1019F0005A83DF91CF911F910F91FF90EF90DF906D
:101A0000BF90AF900895202F30E04491D42EE42E63
:101A1000F12C56E0159FC0011124EFEFF0E0BF015B
:101A20000E946F35812F90E0880F991F55E5569FD2
:101A3000D001579FB00D11248A1B9B0B982F990F33
:101A4000890F5F01A21AB30AAE9CD001AF9CB00D02
:101A5000BE9CB00D11245B2F089F80011124012F23
:101A600011275F01A01AB10AAE9C8001AF9C100D36
:101A7000BE9C100D11245F01A81AB108A29EC001DE
:101A8000A39E900DB29E900D1124892F9927E81BDB
:101A9000F90BEE9DC001EF9D900DFE9D900D112460
:101AA000E92F62307105A1F050F46115710509F458
:101AB0009DCF6130710581F0EB2F512F97CF6430AE
:101AC000710569F080F06630710509F48FCFF4CFAD
:101AD000E42F4B2F592F8ACFE42F412F87CFEB2FA5
:101AE000542F492F83CF4B2F5D2DE12F7FCF80E0E7
:101AF0000895F894E82FE295EF70F0E031A1282FD7
:101B00002F7081E090E001C0880F2A95EAF7982FA6
:101B10009095932391A392A1892B82A37894089501
:101B200090915D0792FF06C0282F28712830F9F4A4
:101B3000877F846093FF06C0282F28712831F1F435
:101B4000877E846120915E0720FF06C0382F3871A0
:101B50003830D9F4877F816021FF06C0282F287193
:101B60002831D1F4877E816194FD877E0895282FE6
:101B700024712430F9F68B7F8860DCCF282F247104
:101B8000243101F78B7E8861DDCF382F3171313000
:101B900019F78E7F8860E0CF282F2171213121F73E
:101BA0008E7E8861E1CFCF93DF93EC01823891057F
:101BB000A9F1D8F58133910509F496C048F5893229
:101BC000910509F48AC08A9709F495C0C11522E5E8
:101BD000D20708F0B6C0C11531E5D30708F026C119
:101BE000C83ED10508F09CC0C03ED10560F5C83A9A
:101BF000D10508F087C0C53AD10508F0EFC0C13063
:101C0000D10509F12097F9F0C430D105E0F440C0C6
:101C10008533910509F45AC0C997C1F680915D07D3
:101C2000837089F0C0EED0E00EC0833E910599F13B
:101C300070F4803E910501F1823E910539F6809164
:101C40005D0782FD21C0CE01DF91CF910895863ED0
:101C5000910561F1873E910571F1843E910509F08E
:101C6000B5CF80915E0781FFEECF80915D07C7EE13
:101C7000D0E084FD0DC0E7CF80915D0780FD07C1F6
:101C800090915E0790FFDFCFC3EED0E084FFDBCF03
:101C9000D0E0C0E0D8CF80915D0782FDFBC090917D
:101CA0005E0790FDBFCF84FFCECFF2CF80915D075E
:101CB00083FDDDCFC8CF80915D0783FDEEC090919D
:101CC0005E0791FFF0CFC4EED0E0BDCF80915D07FD
:101CD00085FFB9CFC9E2D0E0B6CF80915D0785FF1F
:101CE000B2CFC5E3D0E0AFCF80915D0786FFABCF29
:101CF000CAE2D0E0A8CF80915D0786FFA4CFC1E300
:101D0000D0E0A1CFCF3BD10518F6C85AD0E0CC0F18
:101D1000DD1FC15BDE4F0990D881C02DD46493CF05
:101D2000C11540E5D40708F064C0C11580E4D807A8
:101D300008F05CC0CE019A9581159F4108F483CFCD
:101D4000A7CFC11536E5D30718F5C11545E5D4076A
:101D500008F084C0C11584E5D80708F07AC09C2F2C
:101D6000969596959E0123703327C115D34508F4A7
:101D700062C0C1E0D0E002C0CC0FDD1F2A95E2F7BF
:101D800030E2939FC0011124C82BD92BDA685BCFB6
:101D9000C1158AE5D80778F4C11599E5D90708F087
:101DA00068C0C11528E5D20708F472CFDC2FCC2714
:101DB000C06FD06A48CFCE0190568115904208F08E
:101DC00067CF8D2F8F710E94900D90E0982F8827FC
:101DD00088279F719C012C2BE90149C0C55AD0E08E
:101DE000C45BDE4FC881D0E0D0642DCFDF70D06AF5
:101DF0002ACFCE01E4E096958795EA95E1F78370C6
:101E00002C2F26952695237040E2249F90011124C3
:101E1000382B8C2F8370C1E0D0E002C0CC0FDD1FC7
:101E20008A95E2F7C22BD32BDC680DCFDC2FCC27B1
:101E3000C16FD06A08CFC1E0D0E002C0CC0FDD1F77
:101E40002A95E2F720E2929FC0011124C82BD92BDA
:101E5000EBCFDC2FCC27C46FD06AF5CE8C2F0E943D
:101E6000900DC82FD0E0DC2FCC27CC27DF71D062BB
:101E7000EACE8C2F8F700E94900D34E0D695C795D6
:101E80003A95E1F7CF709C2FEC01D069DCCEC9E325
:101E9000D0E0D9CEC2EED0E0D6CEC6EED0E0D3CEE2
:101EA0008091420381111092420308958095909190
:101EB0004103982390934103089580911E039091CC
:101EC000ED02981301C008958F5F8770FACF2EE05E
:101ED000929F800D1124982F9770869586958695F0
:101EE00023E0829FF0011124EA53FD4F50E040E0CF
:101EF00080E0219130E0092E02C0369527950A94A2
:101F0000E2F721703327042E01C0220F0A94EAF76A
:101F1000822B4F5F5F4F4330510559F708952EE0F4
:101F2000929F800D1124982F977041E001C0440FBB
:101F30009A95EAF786958695869593E0899FF001B4
:101F40001124EA53FD4F90E080E070E05191DF01F1
:101F500011979B01082E02C0369527950A94E2F747
:101F6000217021952527242325272C930196833042
:101F7000910561F70895982F92959F7011F0892F20
:101F800094E0282F2695269511F09E5F822F869546
:101F900009F09F5F892F08952F923F924F925F9291
:101FA0006F927F928F929F92AF92BF92CF92DF9269
:101FB000EF92FF920F931F93CF93DF9300D00F9276
:101FC000CDB7DEB7209109012817190609F465C0BD
:101FD000809309012AE1289F4001299F900C112438
:101FE00080E4E82E81E0F82E98E4A92E91E0B92E45
:101FF00024E4C22E21E0D22E312C612C37C0E80D12
:10200000F92DF11DE75DF74F84918A83D501BC91CD
:10201000B983762C770C760C770CF6018081780EDC
:102020009A8186E0989FC00111248554994F9B8323
:102030008A8310E000E0EA81FB81E00FF11F5490F9
:10204000412C272C200E6981640D41E050FE40E0B8
:10205000822D0E943A0B5694439498E04912F3CF94
:102060000F5F1F4F0630110531F76394E62DE30D26
:10207000D7018C91681608F4C2CFBFEFEB1AFB0AA8
:10208000FFEFAF1ABF0A8FEFC81AD80A94E4E91617
:1020900091E0F90611F03E2EB0CF0F900F900F9007
:1020A000DF91CF911F910F91FF90EF90DF90CF9034
:1020B000BF90AF909F908F907F906F905F904F9068
:1020C0003F902F900895BF92CF92DF92EF92FF92B0
:1020D0000F931F93CF93DF93182FB62ED22E86E047
:1020E000489FE0011124C558DE4FFE01F49086E0C0
:1020F000C82EC10E81E0E22EE82600E06B2D600FB5
:102100004E2DF0FE4D2D812F0E943A0BF6940F5F5D
:102110000830A1F72196FE01F4901F5F1C11EDCF4E
:10212000DF91CF911F910F91FF90EF90DF90CF90B3
:10213000BF900895FF920F931F93CF93DF93182FB3
:10214000062FF22EEA014991411106C0DF91CF918D
:102150001F910F91FF9008952F2D602F812F0E94C6
:10216000631049911A5FF0CFEF92FF921F93CF93C4
:10217000DF93C82F7B0113E0180F442371F067E150
:102180000E948A0B21E0A70165E1812FDF91CF91A9
:102190001F91FF90EF900C949A10D1E041E063E121
:1021A0008C2F8D0F0E943A0BDF5FD631B9F7D1E04B
:1021B00041E06DE18C2F8D0F0E943A0BDF5FD6312D
:1021C000B9F749E064E18C2F0E94760B49E064E1A5
:1021D00086E18C0F0E94760B20E0D5CFCF92DF9264
:1021E000EF92FF920F931F93CF93DF936C017B01CC
:1021F00064E670E088E70E946E34EC0197FD12C03F
:1022000010E000E0F601E00FF11F849164E670E059
:102210000E94E834EC01892B29F40F5F1F4F0E1543
:102220001F0581F70E946B35CE01DF91CF911F9181
:102230000F91FF90EF90DF90CF900895809150071D
:1022400090915107992361F0811108C062E070E01C
:1022500085E69EE00E94EE10892B19F080915007D0
:10226000089581E080935007F9CF80935F077093C2
:10227000610760936007809187078430F9F4809349
:10228000E9008FEF9091E800815095FD06C095ED33
:102290009A95F1F700008111F5CF8091E80085FF54
:1022A0000DC050E040E063E070E08FE597E00E94F1
:1022B00057098091E8008E778093E8000895BC016B
:1022C00084E00C943511BC0183E00C943511CF935C
:1022D000DF93EC01809137018823B1F180915D0794
:1022E00087FF32C060E284E08093E9008FEF909135
:1022F000E800815095FD06C095ED9A95F1F7000034
:102300008111F5CF8091E80085FF1BC080913701D6
:1023100070E050E040E0811104C050E040E068E02F
:1023200070E0CE010E9457098091E8008E7780937B
:10233000E80080E2FE01A5E6B7E001900D928A95E3
:10234000E1F7DF91CF91089568E081E0CDCF81E0A2
:102350008093E00080E28093D8001092C9008FE162
:102360009EE40197F1F700C0000087E090EBDC01EC
:102370008093950790939607A0939707B09398073B
:1023800088E19CE00FB6F894A895809360000FBE9A
:1023900090936000FFCFCF93DF93C7ECD2E060E073
:1023A000CE010E9467362196C11584E0D807B9F79F
:1023B000DF91CF9108956F927F928F929F92AF920B
:1023C000BF92CF92DF92EF92FF920F931F93CF9322
:1023D000DF9387E6C82E8EE0D82E9BEEE92EF12CF7
:1023E000E701C85AD10936011BC0F50185909490C8
:1023F000692DC8010E946736682DC80101960E94A8
:10240000673682E0A80EB11C0E5F1F4FC017D107C0
:1024100061F78CE1680E711C6C96CE15DF0529F012
:102420008E010C5111095301E0CF7E0188EAE80EBC
:10243000F11C88EAC80ED11C8BE8E81683E0F80688
:1024400079F6DF91CF911F910F91FF90EF90DF9080
:10245000CF90BF90AF909F908F907F906F90089596
:10246000CF93C82F6FEF811162E283E290E00E9468
:1024700067366FEFC11163E084E290E00E94673637
:102480006FEFC11160E285E290E0CF910C94673666
:1024900080E00E94301260E086E290E00E946736A1
:1024A0000E94DB110E94CB1181E00C943012682F46
:1024B00086E090E00C9467368091490581FF07C063
:1024C0008D7F809349050E9457120C94A10C0895AA
:1024D0008091490581FD07C08260809349050E9473
:1024E00057120C94E60B089580914905982F987F18
:1024F00079F0885080934905887F91E009F490E055
:102500008091490590FB80F9809349050E945712FC
:10251000809149058695869586950C947A0C8091D4
:102520004905982F969596959695913140F49F5F21
:10253000990F990F990F8770892B80934905809186
:1025400049058160809349050E9457128091490591
:102550008695869586950C947A0C0F931F93CF934E
:10256000DF93C42FD0E0CC0FDD1F2CE1629FC00DA4
:10257000D11D112438EA839FC00DD11D1124CE0135
:1025800087960E945336082F10E0102F0027CE01A7
:1025900088960E9453369801282BC901DF91CF916C
:1025A0001F910F910895462F843038F4763028F427
:1025B0006E3018F4672F0C94AD1290E080E008950F
:1025C000CF92DF92FF920F931F93CF93DF936C0113
:1025D0000091910780914303082BC7E0D0E010E001
:1025E000FC2EC8010C2E02C0959587950A94E2F73F
:1025F00080FD0CC02197A0F7F12C8F2DDF91CF919A
:102600001F910F91FF90DF90CF900895B6018C2F0E
:102610000E94D3120E94D30D019761F3EECFCF93A6
:10262000DF93EC010E94E012BE010E94D312DF9101
:10263000CF910C94D30DFC01808191810E940F13E6
:1026400092959F70963091F058F4925F9F709230FF
:1026500058F4803F19F030F4883E30F481E008955A
:102660009A5FF4CF843FD1F380E00895883EB0F3C1
:10267000813FD1F7F3CF83E290E00E94533682325C
:1026800089F484E290E00E945336833059F485E265
:1026900090E00E94533691E0803209F090E0892F5B
:1026A0008170089580E0FCCFCF9384E090E00E9499
:1026B0005336C82F82E290E00E945336982F8C2F19
:1026C000CF910895EFE4F5E080E092E0DF019C0116
:1026D0001D9221503040E1F78FEF9FEF90934E0510
:1026E00080934D0508958091440580FD0AC0E4EC77
:1026F000F3E0118210821282339654E0E435F5073C
:10270000C1F7229A35B13B7F25B124604FB7F894C9
:1027100084EC93E0FC015191CF0168E025B9000001
:1027200000C057FF35B9550F000000C000C000C001
:1027300035B900C06A9591F7F4E084359F0751F7E9
:102740004FBF8FE594E00197F1F700C000000895B6
:102750004F925F926F927F928F929F92AF92BF92B1
:10276000CF92DF92EF92FF920F931F93CF93DF935D
:10277000FC016280448081E08483E5EEFCE074909B
:10278000E4E6FDE0E491C4E5D4E034ECE32E33E08C
:10279000F32E44E4C42E45E0D42E52E0A52EBB24F3
:1027A000B39488248A94912C55245A94E7190E2FB7
:1027B00010E082E0861530F0809145058883809195
:1027C00046058983411021C01B821A8297014A81E4
:1027D000698188810E94DE0C259683E0E80EF11C59
:1027E000CC16DD0631F7DF91CF911F910F91FF904D
:1027F000EF90DF90CF90BF90AF909F908F907F90A1
:102800006F905F904F900C9473138B818823E9F045
:1028100081508B83859DC00111246C8170E00E94E2
:102820006F35FB01FF27EB51F34F8491E82FE71938
:10283000E59DC0011124B8010E946F3580914705C4
:10284000689FB00111247A83C1CF0E94293620915C
:102850004705269521582A9DA0012B9D500D112436
:10286000452F5527841795070CF0B0CF82E08615C9
:1028700088F40E942936B4010E94AD3588830E94F5
:102880002936209146052695622F70E00E94AD35CD
:10289000280F29831A8280914705893C20F088EC13
:1028A0008C838B8393CF8431D8F784E1F9CFEF9277
:1028B000FF920F931F93CF93DF938C01C4ECD3E06F
:1028C000F12CE12CF8019481609146058091450539
:1028D000F8E1EF16F104FCF49923F9F09E01409120
:1028E00047050E94DE0C2FEFE21AF20A239680E3DE
:1028F000E816F10439F70E947313F801848190E01F
:102900000196817099278483DF91CF911F910F9158
:10291000FF90EF900895992309F39E0140E0E1CFE5
:102920008F929F92AF92BF92CF92DF92EF92FF92DF
:102930000F931F93CF93DF93EC014C81042F10E092
:102940009801D8010E94EF369B01AC010E94BA3673
:102950004B015C01E0E2F0E0E01BF10BA5E5B0E02B
:10296000AC019B010E94BA366B017C019F01DF0123
:102970000E94CE359B01AC010E94C5369B01AC0183
:10298000280D391D4A1D5B1DC701B6010E94CD36B9
:10299000F22E822F90E039E23F15D8F143E0249FD8
:1029A0009001112435952795122F109594ECC92E7E
:1029B00093E0D92E00E085E5E82EEF188E2D01FD7D
:1029C0008F2D9601412F609146050E94DE0C0F5F0E
:1029D00053E0C50ED11C003389F70E9473139C810C
:1029E00081E0992319F0903219F48FEF809334012C
:1029F00080913401890F8C83DF91CF911F910F91CA
:102A0000FF90EF90DF90CF90BF90AF909F908F900E
:102A1000089525E530E0A901481B590BCA019A0128
:102A2000220F331F280F391F37FFBCCF2F5F3F4FB7
:102A3000B9CF0F931F93CF93DF93C4ECD3E0FE0184
:102A4000118210821282339684E0E435F807C1F7D0
:102A500010E000E08091C203082E000C990B0817CB
:102A600019078CF180913301082E000C990B801707
:102A700091074CF19E014091470560914605809178
:102A800045050E94DE0C0F5F1F4F23960033110592
:102A900009F70E947313809132019091C203980F3D
:102AA0009093C20320913301280F20933301121613
:102AB00014F49F321CF0819580933201DF91CF9105
:102AC0001F910F910895198218821A82DCCFBF924C
:102AD000CF92DF92EF92FF920F931F93CF93DF93EA
:102AE000FC018281DD24DA9480FD02C0DD24D394D0
:102AF00004EC13E0D0E0C0E020E3B22EF801118234
:102B00001082128294E0E92EF12CC12C8091C10335
:102B10008C0D81330CF43DC06B2D0E949F35892FA5
:102B2000082E000C990B8C179D0791F48091470596
:102B30008E9DA0018F9D500D11245595479555955B
:102B40004795980160914605809145050E94DE0CED
:102B5000CD0CF1E0EF1AF108C9F621960D5F1F4F79
:102B6000C033D10559F60E9473138091C10391E0DF
:102B7000D91215C0811111C08FE28093C103DF917A
:102B8000CF911F910F91FF90EF90DF90CF90BF906A
:102B9000089587FFC5CF805DC3CF8150EECF90E011
:102BA0000196BE010E94AD35E8CFEF92FF921F93D0
:102BB000CF93DF93EC0184ECE82E83E0F82E10E055
:102BC0008C8197014091470560914605810F0E94D5
:102BD000DE0C1B5F83E0E80EF11C103F89F70E94BA
:102BE00073139A818C8190FF08C08F5F8C83DF9173
:102BF000CF911F91FF90EF9008958150F7CF909162
:102C0000440590FF0CC0E4ECF3E0818360834283D1
:102C1000339694E0E435F907C1F70C9473130895E3
:102C20000F931F93CF93DF9300D00F92CDB7DEB7F2
:102C30008C018091C30381110AC09E012F5F3F4F19
:102C400040E86FEF0E94DE0C8A818093C303F80195
:102C50006481613069F08091C30340E0662361F0D4
:102C600040E0623011F44091C30380E060E004C0B2
:102C70006091C30340E080E00E94FF15F801848169
:102C800090E0019663E070E00E94AD3584830F9080
:102C90000F900F90DF91CF911F910F910895CF93D7
:102CA000DF9300D00F92CDB7DEB79091440590FF2F
:102CB0000AC09E012F5F3F4F0E94DE0C4B8169814D
:102CC0008A810E94FF150F900F900F90DF91CF9196
:102CD0000895CF93DF93EC01E4E4F5E04381628152
:102CE0008C810E944F168C818F5F8C83DF91CF91F6
:102CF0000895CF93DF93EC01EC81F0E0EB51F34FBB
:102D00004491E4E4F5E0628181810E944F168C8158
:102D10008F5F8C83DF91CF910895CF92DF92EF92F6
:102D2000FF926B017C010E94C80CB701A60188E0EC
:102D300090E0FF90EF90DF90CF900C9479365F9207
:102D40006F927F928F929F92AF92BF92CF92DF92BB
:102D5000EF92FF920F931F93CF93DF9300D00F92C8
:102D6000CDB7DEB7182F762E042F622E9091440532
:102D700090FF29C0E92FE695AE2FB0E0AC59BD4FCA
:102D80008C918093BE039E7F923081F59E012F5FD0
:102D90003F4F812F0E94DE0C4B8169818A810E9406
:102DA000FF15109345057092460500934705662070
:102DB00051F06091440570914505809146059091D0
:102DC00047050E948D160F900F900F90DF91CF91C5
:102DD0001F910F91FF90EF90DF90CF90BF90AF9039
:102DE0009F908F907F906F905F900895823019F43C
:102DF00000914705D6CF863019F410914505D1CF03
:102E00008930D9F3893169F6E9518E2F8170582EB6
:102E1000E695F0E0E052F34FA590B490BB2484EC2B
:102E2000E82E83E0F82ED12CC12C90E3892E912C32
:102E3000C601B4010E946F35812F511013C0860F57
:102E40009701402F672D0E94DE0CCA0CDB1C83E02B
:102E5000E80EF11C84E5E81684E0F80649F70E94C4
:102E600073139FCF861BECCFE4E4F5E0438124E0AD
:102E7000421B08F440E021E0628181810C949F169E
:102E8000E4E4F5E0438124E0420F08F44FEF21E051
:102E9000628181810C949F16E4E4F5E0628128E070
:102EA000621B08F460E021E0438181810C949F164D
:102EB000E4E4F5E0628128E0620F08F46FEF21E0BE
:102EC000438181810C949F16E4E4F5E0818121E047
:102ED0004381628184500C949F16E4E4F5E0818183
:102EE00021E0438162818C5F0C949F16809148059C
:102EF000882319F0815080934805609144057091B2
:102F0000450580914605909147050C948D1680915A
:102F10004805833018F48F5F80934805609144051D
:102F20007091450580914605909147050C948D164A
:102F3000E4E4F5E08BE1808311828FEF828380E807
:102F40008383148260817181828193810C948D16B8
:102F500040918003509181036091820370918303BB
:102F60008FE090E00C94793680918103813021F4D8
:102F70000E94A10C0C94A817811101C081E08093DC
:102F800035010E94E60BF6CF69EE7EEF90E080E01F
:102F90000E94853660E082E090E00E94673660E043
:102FA00083E090E00E9467361092430360E084E083
:102FB00090E00E94673660E082E290E00E9467360F
:102FC00060E085E090E00E94673660E086E090E097
:102FD0000E9467366FEF87E090E00E94673640E01E
:102FE00050E0BA0188E090E00E94793660E08DE020
:102FF00090E00E94673640E050E0BA0188E190E03E
:103000000E94793660E087E190E00E94673640E0F8
:1030100050E0BA018CE190E00E94793670E060E007
:1030200080E290E00E94853640E050E0BA0188E1FD
:1030300090E00E94793680E00E9430120E9448128F
:1030400040E050E0BA018FE090E00E94793640E025
:1030500050E0BA0183E190E00C947936809141030D
:1030600090914003892B8093A00290914203992371
:10307000A1F0892B8093A002809137018823D9F198
:1030800080915D0787FF37C08EE1E2EAF2E090E0D1
:10309000815098F591110E94500F40E250E060E29B
:1030A00073E080EA92E00E944636892B59F180E273
:1030B000E0EAF2E0A0E2B3E001900D928A95E1F738
:1030C000E0915407F09155073097E1F08091370176
:1030D000882359F080915D0787FF07C08091A00287
:1030E0008093A10286E08093A0020280F381E02D0C
:1030F00080EA92E0099486E0C8CF2191222341F230
:103100009F5FC6CF089590E080E00E94180B90E08A
:1031100080E00E94020B109240030C942E188093C2
:1031200091070C94831880919107982F9670963090
:1031300019F488600C948F18877FFCCF21E030E071
:1031400001C0220F8A95EAF720958091910782238A
:103150000C948F1890911F038095892380931F03EF
:10316000282F277091F4282F082E000C330B92176C
:10317000130659F090915E0792FD07C085958595DD
:1031800085950E949E1810921F030895CF93C091B9
:103190005E07C2FB992790F9981799F080FBC2F956
:1031A000C0935E0760915D0784E090E00E946736FF
:1031B0006C2F82E290E00E94673682E0CF910C94FF
:1031C000AA18CF91089521E030E001C0220F8A951E
:1031D000EAF780919107822B0C948F188093430318
:1031E0000C9483181092410380913701E2EAF2E0D7
:1031F000882359F080915D0787FF07C08EE1DF01CA
:103200001D928A95E9F70C94831886E0F8CF1F93F6
:10321000CF93DF93CDB7DEB7AA970FB6F894DEBF92
:103220000FBECDBF89E897E02091F100DC012D931E
:10323000CD01B7E081399B07B9F780918A078330C8
:1032400009F472C0B8F4813009F449C0823009F43D
:10325000B3C08091E80083FF8BC280918907909171
:103260008A079A3008F084C2E92FF0E0E050F94C68
:103270000C94C1358A3009F48EC08B3009F471C0CA
:10328000893039F780918907813219F780918D074C
:1032900090918E07009711F00297D9F68091E8007F
:1032A000877F8093E8008091E80082FF38C090918A
:1032B000F3008091F200029731F48091F1008130A7
:1032C00011F0863021F48091F100809364078091A1
:1032D000E8008B778093E8000E948109BACF809143
:1032E0008907813A09F0B5CF8091E800877F809304
:1032F000E80080918D0790918E07892B61F460E240
:1033000085E697E070E00E94330A8091E8008B77B1
:103310008093E8009ECF60E090E080E0F3CF809162
:1033200087078111C0CF95CF80918907813A09F035
:1033300090CF80918D0790918E07892B09F089CFCE
:103340008091E800877F8093E8008091E80080FF0B
:10335000FCCF809137018093F1008091E8008E7757
:10336000B9CF80918907813209F073CF80918D07A1
:1033700090918E07892B09F06CCF8091E800877FB0
:103380008093E8000E94810980918B078093370128
:103390000E94F2185ECF80918907813209F059CFDF
:1033A0008091E800877F8093E8000E9481098091E6
:1033B0008C07809363074DCF80918907813A09F08C
:1033C00048CF8091E800877F8093E8008091E800F3
:1033D00080FFFCCF80916307BECF803899F08238A0
:1033E00009F0C6C180918D078F70873008F0C0C189
:1033F0008093E9008091EB0085FB882780F910928B
:10340000E90006C08091850790918607911182603E
:103410009091E800977F9093E8008093F1001092DC
:10342000F1008091E8008E779FC1882309F48DC157
:10343000823009F09DC180918B07811190C18091EC
:103440008D078F702FEF280F263008F091C18093E1
:10345000E9002091EB0020FF82C1933031F480918C
:10346000EB0080628093EB007AC19091EB00906159
:103470009093EB0021E030E001C0220F8A95EAF73B
:103480002093EA001092EA008091EB008860EACF76
:1034900081116EC110918B071F778091E3008078B6
:1034A000812B8093E3008091E800877F8093E80080
:1034B0000E9481098091E80080FFFCCF8091E300A9
:1034C00080688093E30082E0111183E08093870796
:1034D0004FC18058823008F04BC120918B0730914A
:1034E0008C072C3DE3E03E07A1F583E08A838AE266
:1034F00089834FB7F894DE01139620E03EE051E255
:10350000E32FF0E050935700E49120FF03C0E295D1
:10351000EF703F5FEF708E2F90E0EA30C0F0C796FB
:103520008D939D932F5F243159F74FBF8091E80011
:10353000877F8093E8006AE270E0CE0101960E94E6
:10354000330A8091E8008B778093E80011C1C09620
:10355000E7CF80918D0790918E07432F55274330F9
:10356000510509F44AC078F54130510509F47AC093
:103570008BE590E0E7E0F1E14230510509F0F8C059
:103580002091E800277F2093E80020918F07309159
:1035900090078217930708F49C0140E0211531053C
:1035A00009F065C0411163C08091E80082FDC9CF78
:1035B00080918707882329F2853019F28091E800ED
:1035C00083FFF2CFBECF4132510509F43CC04232F5
:1035D000510509F0CDC08330910508F0C9C0FC0148
:1035E000EE0FFF1FEE56FD4F0190F081E02D815749
:1035F0009D4FDC018C9190E01AC0332721303105BA
:10360000D1F02115310561F02230310509F0B0C04B
:10361000E4E7F1E1E4918E2F90E0E4E7F1E107C007
:10362000E6E9F1E1E4918E2F90E0E6E9F1E100971F
:1036300009F49EC0A5CFE2E8F1E1E4918E2F90E07D
:10364000E2E8F1E1F4CF8330910508F091C0880FF2
:10365000991FFC01E856FD4F0190F081E02D89E0B3
:1036600090E08ECF82E190E0E2E6F1E189CF8091B7
:103670008707882309F465CF853009F462CF8091EC
:10368000E80083FD5ECF8091E80082FD8DCF8091C0
:10369000E80080FF83CF9091F3008091F200211524
:1036A000310519F08830910550F041E0089709F094
:1036B00040E08091E8008E778093E8006FCF4491DE
:1036C0004093F1003196215031090196E8CF8038BE
:1036D00009F04EC08091E800877F8093E8008091D8
:1036E00088078093F1009DCE811142C010918B0715
:1036F0001230F0F58091E800877F8093E800109306
:1037000088070E948109112311F084E005C080918F
:10371000E30087FDFACF81E08093870742E061EC08
:1037200081E00E94A00942E261EC84E00E94A009CD
:1037300042E261EC82E00E94A00942E260EC83E098
:103740000E94A0098091870713C080918B07813068
:1037500079F481E0933009F080E08093860710923D
:10376000E9008091E800877F8093E8000E9481094A
:103770008091E80083FF0AC08091E800877F8093F2
:10378000E8008091EB0080628093EB00AA960FB670
:10379000F894DEBF0FBECDBFDF91CF911F9108958A
:1037A000882321F00E94560F0C942E180895882328
:1037B00039F090914103982B909341030C942E186B
:1037C0000895882341F19CEF980F913A38F4682FBF
:1037D00080EA92E00E94A30A0C942E1890E2980FBF
:1037E000983050F4877091E001C0990F8A95EAF7FC
:1037F000892F0E94560FF0CF9BE5980F933020F44D
:1038000090E080E00C94180B885A873120F490E007
:1038100080E00C94020B0895CF93C82F882309F4FD
:1038200067C08CEF8C0F813AC0F5809137018823F7
:1038300011F180915D0787FF1EC0EC2FE695E6959C
:10384000E695F0E0E056FD4F828190E04C2F477006
:1038500021E030E002C0220F331F4A95E2F78223B5
:103860009323892B91F06C2F80EA92E00E94A30AA7
:103870000E942E180AC0E2EAF2E088EA92E0219162
:10388000C21789F38E179F07D1F76C2F80EA92E059
:103890000E94CD0ACF910C942E1880E28C0F8830B4
:1038A00068F4C77021E030E001C0220FCA95EAF742
:1038B00080914103822B80934103ECCFEBE5EC0F29
:1038C000E33040F4F0E0E45BFE4F808190E0CF9184
:1038D0000C94180BC85AC73158F4EC2FF0E0EE0FD7
:1038E000FF1FE15BFE4F80819181CF910C94020B11
:1038F000CF9108951F93CF93DF93182FCAE0D0E0A4
:10390000893311F4C0E5D0E0812F0E940C1C8FE9AF
:103910009FE00197F1F700C000002197C1F7812FC8
:10392000DF91CF911F910C94E11B90E080E00E9409
:103930006136893E9E4F11F40C943B1380E008954C
:103940000E94951C81110AC00E94C41780914905EC
:1039500084708968809349050E94571286E090E040
:103960000E94533680934905803920F0877088681B
:103970008093490590914905892F817090FF04C07B
:10398000892F8695869586950C947A0C1F920F92B6
:103990000FB60F9211242F933F934F935F936F9322
:1039A0007F938F939F93AF93BF93CF93DF93EF93C7
:1039B000FF93D091E900DF708091EC00C82FC170B7
:1039C00080FDC0E81092E9008091F000877F80932D
:1039D000F00078940E9407191092E9008091F0009D
:1039E00088608093F000CD2BCF70C093E900FF91E9
:1039F000EF91DF91CF91BF91AF919F918F917F9187
:103A00006F915F914F913F912F910F900FBE0F904B
:103A10001F9018951F920F920FB60F9211242F939B
:103A20003F934F935F936F937F938F939F93AF9346
:103A3000BF93EF93FF938091E10082FF09C08091D3
:103A4000E20082FF05C08091E1008B7F8093E1005E
:103A50008091DA0080FF24C08091D80080FF20C0D0
:103A60008091DA008E7F8093DA008091D90080FF08
:103A70009DC080E189BD82E189BD09B400FEFDCF12
:103A800081E08093870780916207811109C00E94BD
:103A900007090E94D2098091E20084608093E200CD
:103AA0008091E10080FF17C08091E20080FF13C089
:103AB0008091E2008E7F8093E2008091E20080613D
:103AC0008093E2008091D80080628093D80019BC76
:103AD00085E0809387078091E10084FF2BC080916F
:103AE000E20084FF27C080E189BD82E189BD89B5FC
:103AF000982F917080FFFBCF8091D8008F7D8093AD
:103B0000D8008091E1008F7E8093E1008091E200F7
:103B10008F7E8093E2008091E20081608093E200DA
:103B200080918807882309F447C084E08093870741
:103B3000809187078091E10083FF27C08091E20098
:103B400083FF23C08091E100877F8093E10082E0C2
:103B500080938707109288078091E1008E7F809381
:103B6000E1008091E2008E7F8093E2008091E2008C
:103B700080618093E20042E060E080E00E94A00962
:103B80008091F00088608093F000FF91EF91BF91E9
:103B9000AF919F918F917F916F915F914F913F91E5
:103BA0002F910F900FBE0F901F90189519BC109277
:103BB00087071092620774CF8091E30087FD93E03E
:103BC00090938707B5CF78941F921FB61F92112448
:103BD0008F939F93AF93BF938091590790915A070A
:103BE000A0915B07B0915C070196A11DB11D809368
:103BF000590790935A07A0935B07B0935C07BF9156
:103C0000AF919F918F911F901FBE1F9018959C019F
:103C10004FB7F8948091590790915A07A0915B078C
:103C2000B0915C074FBF821B930B08952FB7F89498
:103C30008091590790915A07A0915B07B0915C075A
:103C40002FBF08950F931F93CF93DF93C62FD42FC9
:103C5000022FFC0182818823A1F0609394070E94C7
:103C6000161E9093930780939207C77081E001C05E
:103C7000880FCA95EAF7DF91CF911F910F910C94AD
:103C8000D71B80919407681335C08091920790915B
:103C900093070E94071E883C910560F510E21D0FF6
:103CA000CD17B9F080E28C0F883040F4C77081E006
:103CB00001C0880FCA95EAF70E94D01B183048F45B
:103CC00081E09D2F977001C0880F9A95EAF70E94B6
:103CD000D71B802F0E947A1C183098F4D77081E08F
:103CE00001C0880FDA95EAF7DF91CF911F910F910C
:103CF0000C94D01BC77081E001C0880FCA95EAF709
:103D0000F3CFDF91CF911F910F91089560914405FA
:103D1000669570E04BE050E087E291E00E94393612
:103D2000892B19F481E08093BF030E94161E9093A3
:103D3000B9038093B80308959091440590FF36C06D
:103D40009170811129C0926090934405662351F0CF
:103D50006091440570914505809146059091470515
:103D60000E948D1660914405669570E04BE050E02E
:103D700087E291E00E943936892BA9F01092BF03A7
:103D800081E08093BB0320E04091470560914605A8
:103D9000809145050C949F168B3210F09465D4CF1A
:103DA000880F982BD1CF0E94861EEACF089580916C
:103DB00044058695815009F48AE261E00C949C1ECA
:103DC0008091440586958F5F8B3208F081E061E039
:103DD0000C949C1E9091440590FF07C096959817EF
:103DE00020F0961710F40C94E01E61E00C949C1ED9
:103DF0003F924F925F926F927F928F929F92AF927B
:103E0000BF92CF92DF92EF92FF920F931F93CF93C7
:103E1000DF9300D000D00F92CDB7DEB78C01FC014C
:103E200083819481892B31F08081918189238F3F17
:103E300009F0D0C50F900F900F900F900F90DF9169
:103E4000CF911F910F91FF90EF90DF90CF90BF9097
:103E5000AF909F908F907F906F905F904F903F902A
:103E600008950E94E012F82E682F89819A810E949D
:103E70008F0F69817A818F2D0E94D3127C01F80106
:103E80008281882309F498C5970122513F4520314A
:103E9000310508F04FC58FEF93E00E945336FEEED8
:103EA000EF0E57EC852E52E0952E8823A1F18091DC
:103EB0001F03877009F4BECFF8018281882309F4BB
:103EC000B9CF80915E0782FDB5CF82E00F900F9051
:103ED0000F900F900F90DF91CF911F910F91FF9056
:103EE000EF90DF90CF90BF90AF909F908F907F909A
:103EF0006F905F904F903F900C94AA18811424E02B
:103F00009206A9F2C4010E945336811101C0EA94BD
:103F10003FEF831A930AE110F1CF1C821B824424E5
:103F200043944AE0342E74018FEFE81AF80AC40172
:103F30000E94533689831A82882309F4B8CF9FEFF1
:103F4000980F933000F58A83498292E0890E911C84
:103F5000C7010E9453368B83882309F4A8CFFE0142
:103F600031967F01F70120812223E9F2213009F007
:103F700049C091818281913041F4F2E0EF0EF11C51
:103F80000E947A1C09C04701EACF923049F422E02E
:103F9000E20EF11C0E940C1C3FEFE31AF30AE2CF81
:103FA000933031F432E0E30EF11C0E94E11BF4CFB8
:103FB000943021F08FEFE81AF80AEECF92E0E90E84
:103FC000F11C30E020E0B7016F5F7F4FF7014181C6
:103FD0008053990B8A30910550F021503109E0F25D
:103FE0008FE99FE00197F1F700C00000F6CF329E05
:103FF000F001339EF00D11249C012E0F3F1F842FE2
:104000007B01E1CFE22FF0E0E75DF64F5490822F85
:1040100086958695869590E0FC01E75EF64F649064
:104020002770712C022E02C0759467940A94E2F7EF
:10403000E1E06E227724FC01E75FF64FA490B12CFB
:10404000022E02C0B594A7940A94E2F7F1E0AF22E1
:10405000BB24FC01E750F74FC490D12C02C0D5948B
:10406000C7942A95E2F721E0C222DD24611471048D
:1040700019F081EE0E940C1CA114B10419F086EE17
:104080000E940C1C852D0E947A1CAB2819F086EE2C
:104090000E94E11B672819F081EE0E94E11BCD28E8
:1040A00009F47ACF8CE26CCF81E00E94E3180E9481
:1040B0009318FDCE81E00E949E18F9CF82E0F5CFE3
:1040C0008091C402882319F01092C40265C4409103
:1040D000C0025091C1026091C2027091C3022FB719
:1040E000F8948091590790915A07A0915B07B0917D
:1040F0005C072FBF841B950BA60BB70B8C3291402E
:10410000A105B105E8F48091800390E0209141037E
:104110002272A1F009966AE070E00E94AD358093AA
:10412000800381E080935D0390918003933009F0D8
:1041300080E080937F030E94A8172EC40196EBCFE6
:1041400010925D030E946213809182038E7F8093A0
:104150008203F1CF81E10E94AD0C809149050E945C
:104160005712A5CE80E0F7CF0E947412A0CE0E9415
:104170008F129DCE8091490580FF09C08E7F80936C
:1041800049050E94571280E00E947A0C90CE80FD73
:104190008ECE816080934905813019F489E0809347
:1041A0004905809149050E945712809149058695DD
:1041B00086958695E9CF90914905892F86958695B4
:1041C00086958F5F8F719770823198F4880F880F72
:1041D000880F892B8093490580914905887F91E05C
:1041E00009F490E08091490590FB80F9809349059E
:1041F000DACF90934905F0CF8091490581FF03C044
:104200000E945C1254CE0E94681251CE27E245EE05
:1042100065EEF8C426E241EE60EEF4C427E245EE16
:1042200064EEF0C426E241EE62EEECC428E241E026
:10423000EFCF31E6E3163DE5F30609F408C585EA5C
:10424000E8168DE5F80609F402C526E1E2162CE52C
:10425000F20609F04CC4809141038A7A91E009F496
:1042600090E09093C50269E2811165E380EA92E0F3
:104270000E94CD0A0E942E181ACE80915D0780629E
:1042800027E0E2162CE5F20609F4A7C080915D074D
:10429000806138E0E3163CE5F30608F49EC08091A7
:1042A0005D0780649AC08DE0E8168CE5F80609F495
:1042B000ADC0B0F480915D078E7FEBE0EE16ECE5CB
:1042C000FE0609F48AC080915D078C60FCE0EF1661
:1042D000FCE5FF0608F481C080915D078D7F7DC0FD
:1042E00080915D078F7E2FE0E2162CE5F20609F43F
:1042F00074C080915D07877F30E1E3163CE5F306EB
:1043000008F46BC080915D078F7D67C08DEFE81664
:104310008CE5F80609F482C078F5E5E1EE16ECE5E7
:10432000FE0609F489C0A0F480915D07837F23E134
:10433000E2162CE5F20609F450C008F477C00E949A
:10434000F21890915D07892F97FB87F9805845C037
:104350008BEFE8168CE5F80609F44AC008F05AC05D
:1043600080915E078160EAEFEE16ECE5FE0609F04B
:104370009DC480935E079AC4F1E0EF16FDE5FF0649
:1043800009F466C098F480915E078C7F3FEFE316D6
:104390003CE5F30671F3B0F180915E07982F90959C
:1043A00091708E7F892B90FB81F9E3CF91E6E9161E
:1043B0009DE5F90609F452C0E5EAEE16EDE5FE06C4
:1043C00009F453C0F2E0EF16FDE5FF0609F06EC4F4
:1043D00060E03FC080915D07826080935D0766C4A6
:1043E00080915D078460F9CF80915D078860F5CF8B
:1043F00080915E078260BDCF0E94F21880915D07B8
:104400008068EBCF80915E078360B3CF80915D07BA
:104410008B7FE3CF80915E078E7FABCF80915E076D
:104420008D7FA7CF80915D078F7BD7CF0E94F21839
:1044300080915D078F77D1CF80915D0782FB9927AF
:1044400090F921E0922790FB82F990FB83F9C5CF88
:1044500061E08EE090E00E94673628C490915D078D
:10446000892F8F7E94FF8061B8CF90915D07892F4F
:104470008E7F90FF8160B1CF8091C50269E281118A
:1044800065E380EA92E00E94A30AF4CE8160809303
:10449000440561E086950E949C1E09CD47ED5EE1D2
:1044A00060EE7EE10E94C30C02CD40EE5EE167ED5E
:1044B0007EE1F8CF4DE657E164E677E1F3CF4CE4D7
:1044C00057E168E577E1EECF44E357E160E477E157
:1044D000E9CF40E457E164E377E1E4CF47E857E10F
:1044E00066E777E1DFCF61E081E0D5CF65E082E08C
:1044F0000E94EA1EDCCC68E086E0FACF64E18FE03F
:10450000F7CF67E185E1F4CF62E289E1F1CF61E0C5
:1045100083E2C1CF0E94F218EFEFF4E32CE0E15008
:10452000F0402040E1F700C000000E94A71181E0A8
:1045300004C380E002C3C7010E94670FD82E0EC3D8
:104540002F2D2F70C22E8F2D807F19F0C29490EFE7
:10455000C922DD20B9F0CC2069F080E28E0D8830D0
:1045600010F0811009C080914103C82AC092410314
:104570000E942E188E2D4DC080914003C82AC092F3
:104580004003F6CF8E2D0E94E11BCC2009F443C0DE
:1045900080E28E0D883010F0811004C08C2D0E94B6
:1045A000560F06C0C09480914003C822C0924003B9
:1045B0000E942E1830C03F2D3F70C32E8F2D807F5C
:1045C000803219F0C29480EFC822882089F081E0FF
:1045D000881609F47FC0DD2009F489C0BB2009F4E6
:1045E0007FC0F801858180FFC5CF8F70858378C03B
:1045F00020915E0722FF4BC0DD2009F442C0CC2091
:1046000039F080914103C82AC09241030E942E18BC
:1046100080E00E940C1C292D2850330B24303105DA
:1046200010F40E942E0BAA2009F404CC80911F03E1
:1046300080FD00CCF80112828595859585950E94B4
:10464000E318C8010E94F81E80911F038595859587
:1046500085950F900F900F900F900F90DF91CF9155
:104660001F910F91FF90EF90DF90CF90BF90AF9090
:104670009F908F907F906F905F904F903F900C94A1
:104680009E1880E00E94E11BCC2029F287CFDD201C
:10469000A1F0909142038C2D892BB11003C00E9490
:1046A000D71BB9CFE1E0BE12FACF22FDB4CF9817E5
:1046B00009F4B1CF80934203AECFB11006C00E947F
:1046C000500F8C2D0E94D01BA6CFF1E0BF1609F42D
:1046D000A2CFF5CFDD2031F025E02B1508F49BCFDC
:1046E0008C2DDDCF34E03B1508F495CFEACFBB200D
:1046F00041F3F9E38F1216C12FEF37EE83E021501B
:1047000030408040E1F700C000008E2D0E94E11B88
:1047100082CF8F2D86958695837061F0813009F068
:104720007ACFC7019370D11002C090E080E00E9460
:10473000020B71CFC7019370D11002C090E080E0EE
:104740000E94180B68CF8F2D837091F5D11063CF25
:104750004E2D429546954770440F440F8E2D8F7015
:10476000042E01C0880F0A94EAF72E2D2071E4FE72
:1047700007C02FE030E001C0220F4A95EAF72095EC
:104780003F2D369536953370323069F050F44091B4
:104790004303313029F0822B84230E94EE183BCF53
:1047A000842B822BFACF282B809143038227F5CFCD
:1047B0008695DD2011F08F2D8170882309F42BCF91
:1047C0004E2D429546954770440F440F8E2D8F70A5
:1047D000042E01C0880F0A94EAF72E2D2071E4FE02
:1047E00007C02FE030E001C0220F4A95EAF720957C
:1047F0003F2D369536953370323069F050F4409144
:104800009107313029F0822B84230E948F1803CF27
:10481000842B822BFACF282B809191078227F5CF0A
:10482000FF2DFF70FF2EDD2029F08F2F0E94E3184F
:104830008E2D35CF8E2D0E94D01B8F2D0E949E185D
:10484000EACE8E2D22EF8216B1F1281570F030EFEE
:104850008316D1F091EF891691F0DD2009F45DC047
:10486000B11088CE8F2D8F712AC0E3EF8E1651F1D3
:10487000F4EF8F12F2CF80915E0782FF2FC08F2D51
:104880008F71DD20D9F21BC0DD2081F024E02B15D3
:1048900008F4C1CE2F2D2F7181E090E001C0880F68
:1048A0002A95EAF7909191078927AFCF35E03B151C
:1048B00008F4B1CEEFCF8F2D8F71D110BFCF0E94F2
:1048C000E318A9CE80E0DD2009F49FCF9F2D9F71D2
:1048D00081E001C0880F9A95EAF797CFDD2091F02B
:1048E0008F2D8F71F82E0E94E31880915E0782FD54
:1048F00007C0E8E0FE9EC0011124836080931F037F
:104900008F2DDDCF81E00E94AA18F1E0FB1508F0A1
:1049100082CE82E00E94AA187ECEBB2041F089336D
:1049200009F4EACEEFE3FCE93197F1F7ECCE8F2DF5
:104930008F7184CFF0E1EF16FFE5FF0609F4B4CBE9
:1049400021E1E2162FE5F20609F4B8CBF8019181D6
:10495000953011F590819630F9F4882309F4B0CBA5
:104960008091820380FD0EC00E941E1180918203FF
:1049700081608093820381E08093C40280935D0311
:104980000E94A8170E94970A6093C0027093C10208
:104990008093C2029093C302F8018281882309F4B4
:1049A00095C1F701EB5BFC45E730F10508F00FC15D
:1049B000E65FF84C0C94C13530E1E3163FE5F306B1
:1049C00009F478CB91E1E9169FE5F90609F0BECF2D
:1049D00082E071CB85E0DE01119601900D928A95FF
:1049E000E1F7F801228189819A8121113ACA0E9456
:1049F000670FF82E3ECA94ECE9169CE5F90609F417
:104A000054CD44E657E16DE677E1E5ECEE16ECE5D2
:104A1000FE0609F447CD93C0F9ECEF16FCE5FF065E
:104A200009F452CD88F437ECE3163CE5F30609F4BB
:104A300046CD48E557E16CE477E198ECE9169CE552
:104A4000F90609F42FCD7BC0EAECEE16ECE5FE0684
:104A500009F43FCD46E757E167E877E1FBECEF1655
:104A6000FCE5FF0609F41ECD6AC021EDE2162CE537
:104A7000F20609F443CDB8F48EECE8168CE5F8069E
:104A800009F434CD08F42FCDEFECEE16ECE5FE067C
:104A900009F431CD6EE089E0F0EDEF16FCE5FF069C
:104AA00009F426CD4CC024EDE2162CE5F20609F4FB
:104AB0002BCD78F482EDE8168CE5F80609F421CDCB
:104AC00061E088E193EDE9169CE5F90609F4E3CC91
:104AD00036C0E5EDEE16ECE5FE0609F418CD6AE207
:104AE00085E2FDE5EF16FF0609F402CD28C02AE5B0
:104AF000E2162DE5F20609F41ACD68F4E1148CE50E
:104B0000F80609F407CD9EEDE9169CE5F906B9F41F
:104B10000E94C417CCC9EBE5EE16EDE5FE0609F4DC
:104B200008CDFCE5EF16FDE5FF0649F480915E0730
:104B300082FB882780F991E089270E94C618F80136
:104B40008281E080F180882309F4F5CCC7010E94BE
:104B5000E012D82E682FC7010E948F0FB7018D2D4C
:104B60000E94D3120E94D30D7C01882EF801D280BE
:104B7000B580B2943FE0B32280911F038770C1F0EB
:104B8000AD2CDD20B1F08F2D807F803421F080E2CC
:104B90008E0D883068F080915E0782FD09C082E04A
:104BA0000E94AA1880911F038770AA24A3948111E0
:104BB000A12C9F2C92942FE09222FBE0F91508F48F
:104BC0002ACDE92DF0E0EF5EF84C0C94C13523EFCF
:104BD000E2162CE5F20609F41DCBC0F488EDE816C8
:104BE0008CE5F80609F412CB99EDE9169CE5F90677
:104BF00009F41CCBE7EDEE16ECE5FE06A9F426E27F
:104C000041EE61EEC8010E94221E51C9F5EFEF1678
:104C1000FCE5FF0609F406CB08F400CB36EFE316FB
:104C20003CE5F30609F4C0C010929407F3E0EF16D8
:104C3000FDE5FF0608F0FDCA2AEFE2162CE5F206B4
:104C400030F4C70182509C45449708F0FECA0E9488
:104C5000541390935E0780935D0791E1E9169CE5FC
:104C6000F90609F4DFCB08F051CBF9E0EF16FCE5CB
:104C7000FF0609F4C1CB08F016CB35E0E3163CE59E
:104C8000F30609F4B1CB08F0F8CA93E0E9169CE505
:104C9000F90609F49FCB08F0A3CB80915D078160F2
:104CA000F2E0EF16FCE5FF0609F497CB60915D0793
:104CB000F0905E0784E090E00E9467366F2D82E2FC
:104CC00090E00E9467360E94F218F1C883EFE81660
:104CD0008CE5F80609F49ECA08F058C0E8EDEE1617
:104CE000ECE5FE0609F492CAF9EDEF16FCE5FF06C5
:104CF00009F49CCA27EDE2162CE5F20609F47FCFF1
:104D0000F6E1EF16FCE5FF0609F4B6CB809141030E
:104D100082722CECE2162CE5F20609F4DFCB08F0E7
:104D2000A4CE96ECE9169CE5F90609F4C3CB08F08D
:104D300073CEF3ECEF16FCE5FF0609F4AFCB08F0F9
:104D40005ACE32ECE3163CE5F30609F0F8CE80913A
:104D5000440580FF9BCB8E7F809344056091440582
:104D60007091450580914605909147050E948D16EA
:104D70001092BF033FEF80E792E0315080409040B7
:104D8000E1F700C000000E94731391C835EFE316ED
:104D90003CE5F30609F446CA08F440CA96EFE91662
:104DA0009CE5F90609F0ACCF27E245EE66EE2ACF86
:104DB0001F93CF93DF938091EC02807FA9F48091C1
:104DC000E902882389F080911E03D091ED02609161
:104DD000E7027091E802A091EA02B091EB02C62FBF
:104DE000C72316E0D81304C0DF91CF911F91089517
:104DF00090E0109711F0CF3F19F401968770F2CF31
:104E0000189F9001199F300D1124F901E251FD4FB7
:104E100041814713F2CF40814613EFCF42814111C8
:104E2000ECCF438154814A1B5B0B483C510528F76A
:104E30008091EC028F7080618093EC02F901ED505B
:104E4000FD4F80818F708061808387EE92E00E94A9
:104E5000F81EDF91CF911F910C945D0FAF92BF921E
:104E6000CF92DF92EF92FF920F931F93CF93DF9336
:104E7000CDB7DEB761970FB6F894DEBF0FBECDBFDA
:104E80008C0185E0F801DE011D9601900D928A9556
:104E9000E1F7F801E28087EEA82E82E0B82E60915B
:104EA000EA027091EB026115710509F432C190912B
:104EB000E7024091E802892F84238F3F09F429C13A
:104EC00020813181C380D480F090E902F601E61B95
:104ED000F70BFF2009F4E8C08091EC02582F507FB7
:104EE000E83CF10508F0ABC0511177C0FE2C43132C
:104EF00021C092131FC0E1101DC08F70806180938C
:104F0000EC02C5010E94F81E8091EC02F801858335
:104F10008F2D61960FB6F894DEBF0FBECDBFDF9127
:104F2000CF911F910F91FF90EF90DF90CF90BF90A6
:104F3000AF900895CD2829F0822F83238F3F09F069
:104F400003C180E0F82FF170DF2E80FF3CC080911C
:104F50001E034091ED0256E0841315C02D873E8755
:104F60008D859E850E940F13292F22952F70223048
:104F7000F0F0243018F59F70F1F0F8019581907FE2
:104F8000D1F4D12C1EC090E0589FF001599FF00D34
:104F90001124E251FD4F6181361306C06081261352
:104FA00003C06281E6120FC001968770D5CF9F7053
:104FB00011F0882331F3805E883018F3C8010E9415
:104FC000F81EFD2CA5CFEE2009F4A2CF8091EC02B3
:104FD00081608093EC02F12C9BCF431306C09213A7
:104FE00004C0F801EE2009F479C0C8010E941B1327
:104FF000882309F1EE20F9F08091EC02803270F004
:105000002091E7023091E80238872F831986DB86EA
:10501000CA868C87CE0107960E94F81E86E0F801AA
:10502000A7EEB2E001900D928A95E1F70E94D82692
:10503000FF24F3946DCFC8010E94F81EF9CF5111DF
:105040000AC087EE92E00E94F81E86E0F5011192F8
:105050008A95E9F7C0CF43130FC092130DC0E1103A
:105060000BC0F8018583C8010E94F81E86E0F50197
:1050700011928A95E9F74CCFC8010E941B1388232F
:10508000D1F2EE20C1F28091EC02803238F2209110
:10509000E7023091E8023A8329831B82DD82CC82C9
:1050A0008E83CE010196B8CFE83CF105F8F6FE2CD0
:1050B000EE2009F243131FC092131DC08091EC0231
:1050C00080FD10C0982F907F69F0F8018583903F94
:1050D00031F0982F907F905F8F70892B8583C80166
:1050E0000E94F81E86E0F801A7EEB2E001900D9252
:1050F0008A95E1F70DCFC8010E941B1381118ECF55
:105100008091EC0281608093EC02C8010E94F81E3D
:10511000FFCEEE2009F48FCFC8010E941B13F82E9A
:10512000882309F488CF86E0F801A7EEB2E0019069
:105130000D928A95E1F78091E7029091E8020E9432
:105140000F130E94D826E4CE81E08E25FBCE1F935C
:10515000CF93DF93CDB7DEB767970FB6F894DEBF76
:105160000FBECDBF4B8B5C8B6D8B7E8B8F8B61119C
:10517000109240031A8A198A85E0FE017396DE01B7
:105180001D9601900D928A95E1F786E0FE013D960D
:10519000DE01179601900D928A95E1F7CE010796F0
:1051A0000E942E27882389F016E080911E0390919B
:1051B000ED02891349C067960FB6F894DEBF0FBEA3
:1051C000CDBFDF91CF911F91089586E0FE01379604
:1051D000DE01119601900D928A95E1F78A859B85F3
:1051E000892B11F38F81988589238F3FE9F22091D4
:1051F000ED0230E0C90101968770992740911E03A6
:105200004817190671F40E94F2181092ED021092DC
:105210001E0386E0E7EEF2E0DF011D928A95E9F7D2
:10522000C3CF96E0929FD001939FB00D1124A2515D
:10523000BD4FFE01319601900D929A95E1F7809352
:10524000ED020E945D0FB0CF819FC00111248251F9
:105250009D4F0E942E27882309F4ADCF80911E0315
:1052600090E001968770992780931E039ECF8F92BE
:105270009F92AF92BF92CF92DF92EF92FF920F93E5
:105280001F93CF93DF93CDB7DEB72C970FB6F8946B
:10529000DEBF0FBECDBF8E010F5F1F4F8CE0F80148
:1052A00011928A95E9F774E1E72E72E0F72E680112
:1052B000AA24A394B12CF70181917F018F3F09F4B7
:1052C00046C0F894E82FE295EF70F0E021A18F70CE
:1052D000A50102C0440F551F8A95E2F7CA01922F1B
:1052E000982B91A392A18095892382A3789400C0E2
:1052F000EAE1F2E021E030E0912C812C41914F3F36
:1053000009F489C0A42FA295AF70B0E090968C915B
:1053100090E04F7002C0959587954A95E2F780FD21
:105320007AC0C901882A992A220F331F52E0E83235
:10533000F50721F7F701319780818F3F11F00E9427
:10534000790D80EA8A95F1F7F60191828082F2E088
:10535000CF0ED11C2AE1E21622E0F20609F0ABCF13
:105360004CE050E0B80183E693E00E944636FF240B
:10537000F394009709F4F12C892B09F44FC08CE0C9
:10538000F801A3E6B3E001900D928A95E1F781E080
:10539000809346030E94161E909345038093440316
:1053A00080914403909145030E94071E0597D0F118
:1053B00080916303909164039093AD038093AC0359
:1053C00080916503909166039093AF038093AE0341
:1053D00080916703909168039093B1038093B00329
:1053E0008091690390916A039093B3038093B20311
:1053F00080916B0390916C039093B5038093B403F9
:1054000080916D0390916E039093B7038093B603E0
:105410001092460307C090E080E084CF809146035D
:105420008111BECF8091190190911A01892B41F011
:10543000809116019091170189238F3F09F07AC25C
:1054400080911E0190911F01892B41F080911C01D8
:1054500090911B0189238F3F09F052C20E942E0BAD
:1054600010916203112381F00E94161E9093610334
:10547000809360031092620310925F0381E0809337
:105480005E0310925D0329C080FBDD24D0F881FB10
:10549000002700F9C090910780915E038823C9F02E
:1054A00080916003909161030E94071E883C9105E2
:1054B00080F00E94B417EE24E394E0925F03109210
:1054C0005E038091820380FF1CC00E941E11E09247
:1054D0005D0380915F0381111BC08F2D2C960FB649
:1054E000F894DEBF0FBECDBFDF91CF911F910F911A
:1054F000FF90EF90DF90CF90BF90AF909F908F90F4
:1055000008950E946213809182038E7F80938203AC
:105510009091800380918203817091112BC009F4D6
:10552000B0CF80915D03882309F4ABCFE9EAF9E0BD
:105530001491D12CB12CA12CE12C00E0602F6D0D29
:1055400041E010FF40E08E2D0E943A0B16950F5F50
:105550000830A1F74FEFA41AB40AE394F501E75518
:10556000F64F1491E7FEE9CF58E0D50E80E2D8124D
:10557000E3CF87CF993009F035C1882309F481CF73
:1055800080915D03882349F10E9462138CE080932F
:105590000901E12C5FE1D52E01E141E06D2D802F65
:1055A0000E943A0BE4E0EE125FC0DA94E12C0F5F48
:1055B000093399F7E12C4FE0D42E0BE541E06D2D36
:1055C000802F0E943A0BF3E0EF1250C0DA94E12CE6
:1055D0000F5F003899F710925D033CEAC32E33E069
:1055E000D32E87E493E068EB73E0D6012D913D91D3
:1055F000FC0141915191CF012417350751F0421719
:10560000530708F47AC1AF0142505109FA013183BE
:1056100020836A177B0751F7F601819191916F0101
:10562000892B31F5F8EBCF16F3E0DF06A9F780916F
:105630000501813029F18823E9F0823009F443C063
:10564000833009F463C080910501813009F473C08F
:10565000882309F46BC0823009F4A9C0833009F4AF
:10566000ADC084E090E0A5C0E394A1CFE394B0CFB7
:1056700011E0DDCF112339F383E080930501E3CFFF
:105680001111FACF40915303509154036091550387
:10569000709156032FB7F8948091590790915A074B
:1056A000A0915B07B0915C072FBF841B950BA60BE5
:1056B000B70B88399A43A105B10528F2109205016C
:1056C00010925B03C0CF1111D7CF4091530350917B
:1056D000540360915503709156032FB7F89480914D
:1056E000590790915A07A0915B07B0915C072FBFB3
:1056F000841B950BA60BB70B8E3E9240A105B105FE
:1057000008F4A1CF81E080930501DACF11119BCF7E
:1057100082E0809305010E94970A6093530370937F
:10572000540380935503909356038DCF84E090E00B
:105730000E94CC0FA6CE90915B0324E030E0F901EB
:10574000E91BF109CF010E94CC0F40915703509102
:1057500058036091590370915A032FB7F8948091C0
:10576000590790915A07A0915B07B0915C072FBF32
:10577000841B950BA60BB70B8C349105A105B105C5
:1057800008F47FCE80915B0390E0019665E070E0C5
:105790000E94AD3580935B030E94970A6093570384
:1057A000709358038093590390935A036ACE85E00F
:1057B00090E00E94CC0F10925C0363CE1091040124
:1057C000812F90E00E94CC0F80915C03811106C074
:1057D00087E0163009F086E08093040181E0809331
:1057E0005C034FCE882309F44CCE8C2D0E94BB0F56
:1057F00090915D0391110DC090910801891309C02A
:1058000090910701901305C0909106019D1509F430
:1058100038CE8093080100930701D09206010E94C0
:105820006213809191070E94BB0F182F8CE0189F84
:10583000802D11246BE08B5F0E948A0B21E01111F7
:1058400020E040E365E188E00E94631021E0113030
:1058500009F020E041E365E184E10E94631021E06A
:10586000123009F020E042E365E180E20E9463101B
:1058700021E0133009F020E043E365E18CE20E946F
:10588000631010E041E06EE0812F0E943A0B1F5F31
:105890001038C1F70E942E0B182F117081FB44277E
:1058A00040F968E371E080E50E94B410412F6CE399
:1058B00071E089E60E94B41000918003802F90E08F
:1058C000FC01E358FE4F1081880F991FFC01E05046
:1058D000FE4F4081518120E062E0812F0E949A10AA
:1058E000023009F0CECD60E08CE00E94B80B61E0A0
:1058F00088E5810F0E94B80BC4CD10925C038CCE5A
:1059000080911D01882309F4A9CD10921D010E94E8
:10591000161E8160782F90931F0180931E01409185
:105920001B0150911C0160911D0180911F010E947B
:10593000A72894CD80911801882309F481CD109275
:1059400018010E94161E8160782F90931A0180938F
:105950001901409116015091170160911801809131
:105960001A010E94A7286CCD1F921FB61F92112406
:105970008F939F93AF93BF9380915807811113C06A
:105980008091590790915A07A0915B07B0915C07ED
:105990004196A11DB11D8093590790935A07A0937A
:1059A0005B07B0935C07BF91AF919F918F911F9060
:1059B0001FBE1F9018951F920F920FB60F921124C1
:1059C0002F933F934F935F936F937F938F939F9307
:1059D000AF93BF93EF93FF93809136018230A1F094
:1059E0008F5F80933601FF91EF91BF91AF919F91AF
:1059F0008F917F916F915F914F913F912F910F9078
:105A00000FBE0F901F90189581E080933601209172
:105A1000350180914B0590914C05019648E7249FF4
:105A200090011124B9010E946F3590934C05809329
:105A30004B05B901660F672F661F770B71950E94A2
:105A40006F3567FD6FE780914A05823041F460341D
:105A500051F480916F008E7F80936F0004C081307D
:105A600011F46F37B1F3E62FF0E0EB51F24F2491D0
:105A7000A0918600B091870030E00E94EF362FEFB2
:105A800030E040E050E00E94CD36C90161E170E0B5
:105A90000E946F3580914905869586958695282FB9
:105AA000269FC001279F900D11240E94F20B909316
:105AB00089008093880097CFCDB7DEB7AC970FB63B
:105AC000F894DEBF0FBECDBF84B7877F84BF0FB60B
:105AD000F894A8958091600088618093600010928E
