:100000000C94D3070C940B080C940B080C940B085D
:100010000C940B080C940B080C940B080C940B0814
:100020000C940B080C940B080C9474180C94721D0F
:100030000C94862B0C940B080C940B080C940B0856
:100040000C940B080C940B080C940B080C940B08E4
:100050000C94AD2B0C944D190C940B080C940B08BC
:100060000C940B080C940B080C940B080C940B08C4
:100070000C940B080C940B080C940B080C940B08B4
:100080000C940B080C940B080C940B080C940B08A4
:100090000C940B080C940B080C940B080C940B0894
:1000A0000C940B080C940B080C940B080501090226
:1000B000A10185020901A1000509190129081500FE
:1000C0002501950875018102050109300931158165
:1000D000257F95027508810609381581257F9501D0
:1000E00075088106050C0A38021581257F95017572
:1000F000088106C0C005010980A101850319012AF4
:10010000B700150126B700950175108100C0050CD8
:100110000901A101850419012AA002150126A002E6
:10012000950175108100C005010906A1018506052C
:100130000719E029E71500250195087501810205D9
:1001400007190029EF1500250195F07501810205B9
:10015000081901290595057501910295017503910D
:1001600001C00660FF0961A1010962150026FF00B8
:100170009520750881020963150026FF00952075FA
:10018000089102C005010906A101050719E029E748
:1001900015002501950875018102950175088101F9
:1001A0000507190029FF150026FF0095067508812F
:1001B000000508190129059505750191029501753C
:1001C000039101C007087F0807003E5B4F5B3E00BC
:1001D0003E6B4F6B3E001C3E7C3E1C00183C7E3C40
:1001E00018001C577D571C001C5E7F5E1C00001809
:1001F0003C180000FFE7C3E7FF00001824180000C8
:10020000FFE7DBE7FF0030483A060E002629792990
:100210002600407F05050700407F05253F005A3C2A
:10022000E73C5A007F3E1C1C0800081C1C3E7F0057
:1002300014227F2214005F5F005F5F0006097F01C8
:100240007F00006689956A0060606060600094A22B
:10025000FFA2940008047E04080010207E201000F5
:1002600008082A1C0800081C2A0808001E10101084
:1002700010000C1E0C1E0C0030383E383000060EEC
:100280003E0E060000000000000000005F000000BD
:10029000000700070000147F147F1400242A7F2A1F
:1002A00012002313086462003649562050000008EB
:1002B00007030000001C224100000041221C000036
:1002C0002A1C7F1C2A0008083E08080000807030A5
:1002D0000000080808080800000060600000201006
:1002E000080402003E5149453E0000427F400000A4
:1002F0007249494946002141494D33001814127F83
:1003000010002745454539003C4A49493100412103
:1003100011090700364949493600464949291E0056
:100320000000140000000040340000000008142207
:100330004100141414141400004122140800020196
:10034000590906003E415D594E007C1211127C0095
:100350007F49494936003E41414122007F414141A8
:100360003E007F49494941007F09090901003E419A
:10037000415173007F0808087F0000417F41000061
:100380002040413F01007F08142241007F4040404F
:1003900040007F021C027F007F0408107F003E4166
:1003A00041413E007F09090906003E4151215E009E
:1003B0007F091929460026494949320003017F0176
:1003C00003003F4040403F001F2040201F003F40AF
:1003D00038403F00631408146300030478040300EA
:1003E0006159494D4300007F41414100020408101A
:1003F0002000004141417F0004020102040040400E
:10040000404040000003070800002054547840009A
:100410007F28444438003844444428003844442861
:100420007F0038545454180000087E09020018A4B4
:10043000A49C78007F080404780000447D400000FC
:100440002040403D00007F102844000000417F40D4
:1004500000007C04780478007C08040478003844A8
:1004600044443800FC182424180018242418FC00E4
:100470007C080404080048545454240004043F44F5
:1004800024003C4040207C001C2040201C003C40BC
:1004900030403C004428102844004C9090907C0050
:1004A0004464544C440000083641000000007700CA
:1004B00000000041360800000201020402003C2650
:1004C00023263C00000000000000404040F0F8F807
:1004D000FF38FFF8F83FF8F8FF38FFF8F8F0404031
:1004E0004000000000000080C0C0C0800000C0C00C
:1004F0008000000080C0C000C0C0000080C0C000FC
:1005000000000000C0C0C0C0C000C0C000000000AB
:1005100000000000000000000000000000000000DB
:1005200000000000000000000000000000000000CB
:1005300000000000000000000000000000000000BB
:10054000000000C0F0F8FC3E1E06010000007F41E4
:1005500041417F007F4141417F000080C0E07E5BE0
:100560004F5BFEC00000C000DCD7DEDEDED7DC0063
:10057000C0000000000000000000000000000000BB
:1005800000000000000000000000494949FFFFFF93
:10059000FFE0DFBFBF00BFBFDFE0FFFFFFFF494954
:1005A0004900000000001F3F6060E0BF1F007F7F28
:1005B000071E381E077F7F007F7F0E1F3B71600084
:1005C000000000007F7F0C0C0C007E7E007F7E030D
:1005D00003007F7E03037E7E03037F7E000F3E7059
:1005E0003C063C703E0F00327B49493F7E007F7ED7
:1005F0000303001E3F69696F260000000000000031
:10060000000000030F1F3F3C7870600000007F4136
:1006100041417F007F4141417F00307B7F78302026
:100620002030787F3B0003000F7F0F0F0F7F0F00FC
:1006300003000000000000000000000000000000B7
:1006400000000000000000000000010101070F0F82
:100650007F0F7F0F0F7E0F0F7F0F7F0F0F0701019F
:100660000100000000000000000000010100000087
:10067000000000000000000000000000000000007A
:10068000000000000000000000000000000000006A
:10069000000000000000000000000000000000005A
:1006A000000000000000000000000000000000004A
:1006B000000000000000000000000000000000003A
:1006C000000000000000000000000000000000002A
:1006D000000000000000000000000000000000001A
:1006E000000000000000000000000000000000000A
:1006F00000000000000000000000000000000000FA
:1007000000000000000000000000000000000000E9
:1007100000000000000000000000000000000000D9
:1007200000000000000000007E0F00D4FFFFFFC7A4
:100730000000007800000000000000002A2B2800C4
:100740000000000000000000000000000000002980
:10075000000000002C1E3420212224342627252EC0
:10076000362D3738271E1F202122232425263333F8
:10077000362E37381F0405060708090A0B0C0D0E24
:100780000F101112131415161718191A1B1C1D2FF0
:100790003130232D350405060708090A0B0C0D0E10
:1007A0000F101112131415161718191A1B1C1D2FD0
:1007B0003130354C00000000000000000000000057
:1007C0000000000000000000000000000000000029
:1007D0000000000000000000000000000000008099
:1007E0008080000000000000000000000000000009
:1007F000000000000000000000000000000000F009
:100800001C0602020303838383830303030383839E
:100810008383830303038383830303030303038328
:10082000838383030202060CF8000000000000002E
:1008300000000000000000000000000000000000B8
:100840000000000080000000000080000000800028
:10085000000000000080800000008080F8FE87E13A
:10086000BF9F00000000800000000000000080002A
:10087000000080000000000080000000000000FF79
:10088000000000000000FFFFFF3FFCE0C0F87F0F0A
:10089000FFFF00000000FFFFFF80C0F0F83C1F0FCB
:1008A0000301000000000000FF0000000000000045
:1008B0000000000000000000000000000000000038
:1008C000FCFEC783838FC6C0FEFFC7C0F0FFFF8159
:1008D000C0E0709E8FBFF8F080C1E37FFFFF83838D
:1008E00083C1FCFEFF8383DFFF7E1818FEFFFB1C25
:1008F00006FFFFFF3C0EE7FFFF80C0E0600000FF47
:10090000000000000000FFFFFF00010F0F030000C8
:10091000FFFF00000000FFFFFF0703030F3F7CF80D
:10092000E080000000000000FF0000000000000068
:1009300000000000000000000000000000000000B7
:10094000000101010101010001010100000101019B
:100950000100000103030101010000000001010189
:10096000010100010101010100000000010100007E
:100970000001010100000001010101000000000F61
:100980003820404040404343434040404040404086
:100990004343404040404343434040404040404147
:1009A00043434340404060301F000000000000000F
:1009B0000000000000DA0281FFD9F1DB20A4A62E9E
:1009C000AF00A0C000A1C800AED580A81FD30040D2
:1009D0008D14200000AE1E0F0500047F3F1F6432FF
:1009E00014643214783C1E1E140A05000101010132
:1009F00001010101010202020202020202020303DA
:100A000003030303030304040404040404050505A9
:100A1000050506060606060707070707080808086B
:100A2000090909090A0A0A0B0B0B0C0C0C0D0D0D18
:100A30000E0E0E0F0F0F10101111111212131314AE
:100A400014151516161717181819191A1A1B1B1C26
:100A50001D1D1E1E1F202021222223242425262680
:100A6000272829292A2B2C2D2D2E2F3031323233B5
:100A70003435363738393A3B3C3D3E3F40414243BE
:100A80004445464748494A4C4D4E4F5051535455A2
:100A90005658595A5B5D5E5F616264656668696B52
:100AA0006C6D6F7072737577787A7B7D7E808283D0
:100AB0008587888A8C8E8F91939596989A9C9EA014
:100AC000A2A3A5A7A9ABADAFB1B3B5B7BABCBEC021
:100AD000C2C4C6C9CBCDCFD1D4D6D8DBDDDFE2E4EA
:100AE000E7E9EBEEF0F3F5F8FAFDFFFFAA7F5540DA
:100AF0002223252628292A2C2D2F3032333536382B
:100B00003A3B3D3E4042434547494A4C4E50515383
:100B10005557595A5C5E6062646668696B6D6F71A7
:100B2000737577797B7D7F81838587898A8C8E90A9
:100B3000929496989A9C9E9FA1A3A5A7A8AAACAEB2
:100B4000AFB1B3B4B6B8B9BBBCBEBFC1C2C3C5C6F2
:100B5000C7C9CACBCCCDCED0D1D2D2D3D4D5D6D79B
:100B6000D7D8D9D9DADADBDBDBDCDCDCDCDCDDDDD9
:100B7000DDDDDCDCDCDCDCDBDBDBDADAD9D9D8D7C9
:100B8000D7D6D5D4D3D2D2D1D0CECDCCCBCAC9C76B
:100B9000C6C5C3C2C1BFBEBCBBB9B8B6B4B3B1AFA2
:100BA000AEACAAA8A7A5A3A19F9E9C9A9896949242
:100BB000908E8C8A89878583817F7D7B7977757319
:100BC000716F6D6B6968666462605E5C5A595755F7
:100BD0005351504E4C4A4947454342403E3D3B3AB3
:100BE0003836353332302F2D2C2A2928262523223A
:100BF00000000000000000000000000101020304EA
:100C00000506080A0C0F1114181C2024292E33394C
:100C10003F464C535B626A7179818A929AA2AAB26A
:100C2000B9C1C8CFD5DCE1E7EBF0F4F7FAFCFDFE83
:100C3000FFFEFDFCFAF7F4F0EBE7E1DCD5CFC8C12D
:100C4000B9B2AAA29A928A8179716A625B534C46C0
:100C50003F39332E2924201C1814110F0C0A0806C2
:100C60000504030201010000000000000000000074
:100C700000AF165C1F00200021002200230024008A
:100C80002500260027002D002E002A004C0014000D
:100C90001A000800150017001C0018000C001200B4
:100CA00013002F00300031004B003B000400160001
:100CB000070009000A000B000D000E000F003300B2
:100CC000340028004E00E1001D001B000600190042
:100CD000050011001000360037003800E500520012
:100CE0004D00E3003E00E2003F003D002C003C00D0
:100CF000AA00E600E400A900500051004F001E00C9
:100D00002B0039000000E0003A0000000000000065
:100D100000000000000000000000005C3B003C0000
:100D20003D003E003F0040004100420043004400BF
:100D30004500010001000100310001000100010037
:100D4000010001000100010001000100010001009B
:100D500001004100BF5CC05CC15C010001000100FA
:100D6000010001000100010001000100010001007B
:100D7000C25CC35CC45CC95CCA5CC55CC65C010087
:100D80000100010001000100010001004400010018
:100D90004500430001004200010001000100010084
:100DA0000100010001003A00010001000000010003
:100DB00040000100000000000000000000000000F2
:100DC000000001000100010001000100010001001C
:100DD000010001000100010001000100010001000B
:100DE00001000100010001000100010001000100FB
:100DF00001000100010001000100010001000100EB
:100E000001000100010001000100010001000100DA
:100E100001000100010001000100010001000100CA
:100E200001000100010001000100010001000100BA
:100E300001000100010001000100010001000100AA
:100E4000010001000100010001000100010001009A
:100E5000010001000000010001000100000000008D
:100E6000000000000000000000000100010001007F
:100E7000010001000100010001000100010001006A
:100E8000010001000100010001000100010001005A
:100E9000010001000100010001000100010001004A
:100EA000010001000100010001000100010001003A
:100EB000010001000100010001000100010001002A
:100EC000010001000100010001000100010001001A
:100ED000010001000100010001000100010001000A
:100EE00001000100010001000100010001000100FA
:100EF00001000100010001000100010000000100EB
:100F000001000100000000000000000000000000DF
:100F1000000009025B00030100A0FA0904000001BF
:100F20000301010009211101000122400007058190
:100F30000308000109040100020300000009211157
:100F4000010001222200070582032000010705039A
:100F5000032000010904020001030000000921111F
:100F600001000122B60007058403200001120100E0
:100F700002000000085BF3B5FA0100010200010C59
:100F800003450056004F0037003000000012036395
:100F9000007500730074006F006D004D004B000081
:100FA00000040309040011241FBECFEFDAE0DEBF06
:100FB000CDBF04B603FE18C080918E0790918F07B5
:100FC000A0919007B09191078730904BA740B04B0C
:100FD00059F410928E0710928F071092900710927A
:100FE0009107E0E0F8E3099527E0A0EAB2E001C04C
:100FF0001D92AE38B207E1F712E0A0E0B1E0E8E4FC
:10100000FDE602C005900D92A03AB107D9F70E9403
:101010002E2C0C9472360C940000E8EDF0E08081E8
:101020008E7F80831092E2001092DA001092E1002D
:10103000A0EEB0E08C9181608C9380818F7780836B
:1010400019BCA7EDB0E08C918E7F8C9380818F7E50
:10105000808310925B0708952091E4003091E500B1
:1010600095E6A9012091EC00822F817020FF06C037
:101070008091E80080FF06C080E008952091E8009C
:1010800022FD1AC080918007882389F0853089F07D
:101090008091EB0085FD0FC02091E4003091E500C8
:1010A00042175307F9F29150E1F684E0089582E087
:1010B000089583E0089581E00895EF92FF920F93E1
:1010C0001F93CF937C018B010E942C08C82F8111A4
:1010D00017C08091E80085FD0BC08091E8008E77F5
:1010E0008093E8000E942C08882399F3C82F08C039
:1010F000F70181917F018093F1000150110949F7B7
:101100008C2FCF911F910F91FF90EF9008958091B8
:10111000820787FF13C08091E80082FF06C080919C
:10112000E8008B778093E80004C0809180078111EC
:10113000F2CF0895809180078823D9F38091E80049
:1011400080FFF8CF8091E8008E77ECCF982F9093B6
:10115000E900242F762F50E0891731F07091EC00D0
:101160002091ED005091F00021FD07C09F5F973066
:1011700071F78093E90081E008953091EB003E7FA4
:101180003093EB003091ED003D7F3093ED003091D6
:10119000EB0031603093EB007093EC002093ED0096
:1011A0005093F0002091EE0027FDE0CF80E00895FD
:1011B000CF92DF92EF92FF920F931F93CF93DF9323
:1011C000C8EDD0E088818F7E8883E7EDF0E08081F4
:1011D0008160808384E082BF81E080935B078881A7
:1011E0008E7F888302EE10E0F80110821092DA0000
:1011F00081EEC82ED12CF601108288818F778883EA
:1012000088818068888388818F7D888319BC10924B
:1012100080071092810710927F0710927E0790EE50
:10122000E92EF12CF70180818B7F8083888181609A
:10123000888342E060E080E00E94A608F601808199
:101240008E7F8083F80180818160808380818860C7
:101250008083F70180818E7F80838881806188838D
:10126000DF91CF911F910F91FF90EF90DF90CF9082
:101270000895FC0180918807909189078617970748
:10128000A0F06115710529F49091E8009E77909384
:10129000E80090E06115710551F4911108C080914A
:1012A000E80082FF34C080E00895BC01F2CF809155
:1012B00080078823C1F18530C1F18091E80083FD6A
:1012C00030C08091E80082FDEACF8091E80080FF85
:1012D000E1CF8091F3002091F200382F6115710564
:1012E00019F02830310558F091E02830310509F027
:1012F00090E02091E8002E772093E800CBCF8191F9
:101300008093F100615071092F5F3F4FE7CF8091CB
:101310008007882341F0853041F08091E80083FF09
:10132000BECF81E0089582E0089583E00895089596
:1013300080915D0708952FB7F894609152077091DE
:10134000530780915407909155072FBF089520911E
:1013500034012223C9F02091560727FF15C0E62F3C
:10136000E695E695E695EE31D8F4E80FF92FF11DF4
:10137000677021E030E001C0220F6A95EAF72095FE
:101380008281282322830895FC01329608962191B8
:10139000621303C0DF0111971C92E817F907B9F730
:1013A0000895209134012223C1F02091560727FF90
:1013B00014C0E62FE695E695E695EE31F8F4E80FD1
:1013C000F92FF11D677021E030E001C0220F6A950E
:1013D000EAF78281822B82830895FC0132962FEFF7
:1013E00030E04191641751F02F3F19F4411101C0D1
:1013F000232F3F5F3630A9F72F3F09F40895820F5E
:10140000911D27FD9A95FC016283089520914F0755
:10141000309150072817390771F090935007809347
:101420004F07E0914D07F0914E07309721F000846F
:10143000F185E02D0994089520914B0730914C07D8
:101440002817390771F090934C0780934B07E09170
:101450004D07F0914E07309721F00680F781E02D7F
:1014600009940895E0914D07F0914E07309721F0CF
:101470000190F081E02D099480E0089530914807B3
:101480008317A0F590E0262F269526952695239F75
:10149000800D911D1124811522E092073CF5FC017D
:1014A000E85BFA4F5081677021E030E001C0220F05
:1014B0006A95EAF74423D9F0252B2517B9F0208344
:1014C00025E0969587952A95E1F721E030E002C066
:1014D000220F331F8A95E2F78091460590914705C8
:1014E000822B932B90934705809346050895209572
:1014F0002523E3CF1F93CF93DF93182FC62FD62F2B
:10150000D40FCD1304C0DF91CF911F91089541E016
:101510006C2F812F0E943E0ACF5FF3CFCF92DF92D4
:10152000EF92FF920F931F93CF93DF93082F10E05A
:10153000E8017801E60EF11C670181E0C81AD108C4
:10154000CE15DF054CF0DF91CF911F910F91FF90E9
:10155000EF90DF90CF9008958C2F0C171D0719F096
:10156000CC15DD0531F449E064E10E947A0A219648
:10157000E7CF4BE063E1F9CF1F93CF93DF93C82F01
:10158000162F47E062E00E947A0A47E062E084E0BA
:101590008C0F0E947A0A43E064E082E08C0F0E9484
:1015A0007A0AD3E0DC0FCF5F45E063E0112359F006
:1015B0008C2F0E947A0A41E065E08D2FDF91CF9158
:1015C0001F910C943E0A8D2F0E947A0A41E065E03B
:1015D0008C2FF4CF109245051092440510924305CC
:1015E000EFE6F0E080818160808308958F929F9282
:1015F000AF92BF92CF92DF92EF92FF920F931F9321
:10160000CF93DF938C0180918600909187006CE0EE
:1016100070E00E94E3346017710798F0C80169E038
:1016200070E00E94E334CB01DF91CF911F910F91C5
:10163000FF90EF90DF90CF90BF90AF909F908F90F2
:1016400008958091860090918700E0908600F09048
:101650008700C0908600D0908700C6E0D0E0BE0131
:101660000E94E33430E020E0060F171F211D311DDA
:101670004801590185E0880C991CAA1CBB1C8A955D
:10168000D1F7C701BE010E94E334F12CE12CA70180
:101690009601260F371F411D511DC501B4010E943F
:1016A000413669017A01E0918600F0918700CA0114
:1016B000B9010E94F7349B01AC01DF010E942E3674
:1016C0009B01AC01C701B6010E94F7342FE096954B
:1016D0008795779567952A95D1F7009186001091A7
:1016E000870030E020E0061717072807390708F0C1
:1016F0009ACF609186007091870095CF8231F0F487
:1017000081111DC0909180009F73909380002D9A4D
:10171000A0918600B0918700282F30E00E946336A8
:1017200021E130E040E050E00E944136C9010E94D2
:10173000F60A9093890080938800089581E1909142
:101740008000906C90938000E3CFEFE6F0E0808122
:101750008E7F8083809142058695869586950C9430
:101760007E0B282F220F220F220F90914205977097
:10177000922B90934205987F21E009F420E090910C
:10178000420520FB90F9909342050C947E0BFA01E0
:10179000811101C0FB010994089580913D05982FA6
:1017A0009E7F61F48170826080933D058091400549
:1017B000813818F080E88093400508958635B0F3AD
:1017C00081708465F1CFAF92BF92DF92EF92FF926A
:1017D0000F931F93CF93DF93182F062FE901413802
:1017E00008F040E8E42FF0E0E551F64F011110C099
:1017F000E4915E2F4E2F4983E8835A83DF91CF9186
:101800001F910F91FF90EF90DF90BF90AF900895E0
:10181000202F30E04491D42EE42EF12C56E0159F79
:10182000C0011124EFEFF0E0BF010E94E334812FEB
:1018300090E0880F991F55E5569FD001579FB00D36
:1018400011248A1B9B0B982F990F890F5F01A21AF5
:10185000B30AAE9CD001AF9CB00DBE9CB00D11245C
:101860005B2F089F80011124012F11275F01A01A0F
:10187000B10AAE9C8001AF9C100DBE9C100D1124CE
:101880005F01A81AB108A29EC001A39E900DB29E4E
:10189000900D1124892F9927E81BF90BEE9DC001AB
:1018A000EF9D900DFE9D900D1124E92F6230710582
:1018B000A1F050F46115710509F49DCF61307105F7
:1018C00081F0EB2F512F97CF6430710569F080F0D4
:1018D0006630710509F48FCFF4CFE42F4B2F592FC9
:1018E0008ACFE42F412F87CFEB2F542F492F83CF5F
:1018F0004B2F5D2DE12F7FCF4091AD03803F59F4F9
:101900008091AE0387FF0DC01092AE0341110BC052
:101910001092A50308C0813F81F48091AE03181690
:101920009CF3442381F08091AF039091B003892B05
:1019300009F05AC01092A4030895823F49F447FF6A
:10194000F0CF1092AD038091AE038111ECCFE0CFC8
:10195000833F19F41416ACF3E4CF9091AF03893FA1
:1019600029F41916F4F61092AF03DBCF8A3F19F46D
:1019700097FFD7CFF8CF9091B0038B3F29F497FF13
:10198000D0CF1092B003CDCF8C3F19F41916CCF301
:10199000C8CF9CE0980F953090F4845F990B21E0BC
:1019A00030E0B90102C0660F771F8A95E2F7CB01DC
:1019B00080959091AC0389238093AC03B2CF8D3F87
:1019C00031F48091A6038E7F8093A603AACF8E3F29
:1019D00021F48091A6038D7FF7CF8F3F09F0A1CF2F
:1019E0008091A6038B7FF0CF08958091A60380FDA0
:1019F00016C081FD16C082FD16C08091A403882305
:101A0000A1F0883280F428E0829FC001112468E2AE
:101A100070E00E942135862F672B39F0089582E00F
:101A2000089584E0089588E0089581E00895809104
:101A3000A60380FD14C081FD14C082FD16C08091F4
:101A4000A503882381F08E3180F420E5829FC001B8
:101A500011246EE170E00E942135862F089584E103
:101A6000089588E2089588E0089580E50895803F0C
:101A700031F40E94170D81958093AE030895813F44
:101A800019F40E94170DF8CF823F31F40E94170D10
:101A900081958093AD030895833F19F40E94170D3B
:101AA000F8CF893F29F40E94F50C8093AF03089585
:101AB0008A3F21F40E94F50C8195F7CF8B3F31F4DA
:101AC0000E94F50C81958093B00308958C3F19F422
:101AD0000E94F50CF8CF9CE0980F953070F4845F6D
:101AE000990B21E030E001C0220F8A95EAF780913E
:101AF000AC03822B8093AC0308958D3F31F4809129
:101B0000A60381608093A60308958E3F21F48091FF
:101B1000A6038260F7CF8F3FB9F78091A603846058
:101B2000F1CF80E00895F894E82FE295EF70F0E0AF
:101B300031A1282F2F7081E090E001C0880F2A95F5
:101B4000EAF7982F9095932391A392A1892B82A3D2
:101B5000789408959091560792FF06C0282F287117
:101B60002830F9F4877F846093FF06C0282F2871FE
:101B70002831F1F4877E84612091570720FF06C049
:101B8000382F38713830D9F4877F816021FF06C043
:101B9000282F28712831D1F4877E816194FD877EBA
:101BA0000895282F24712430F9F68B7F8860DCCFCC
:101BB000282F2471243101F78B7E8861DDCF382FE7
:101BC0003171313019F78E7F8860E0CF282F217175
:101BD000213121F78E7E8861E1CFCF93DF93EC0135
:101BE00082389105A9F1D8F58133910509F496C0A1
:101BF00048F58932910509F48AC08A9709F495C09D
:101C0000C11521E5D20708F0BCC0C11530E5D307E6
:101C100008F014C1C83ED10508F09CC0C13ED105F2
:101C200060F5C83AD10508F087C0C53AD10508F07B
:101C3000FDC0C130D10509F12097F9F0C430D105BC
:101C4000E0F440C08533910509F45AC0C997C1F644
:101C500080915607837089F0C0EED0E00EC0833EBD
:101C6000910599F170F4803E910501F1823E910554
:101C700039F68091560782FD21C0CE01DF91CF91C8
:101C80000895863E910561F1873E910571F1843E8C
:101C9000910509F0B5CF8091570781FFEECF809174
:101CA0005607C7EED0E084FD0DC0E7CF8091560700
:101CB00080FD12C19091570790FFDFCFC3EED0E0B7
:101CC00084FFDBCFD0E0C0E0D8CF8091560782FD03
:101CD00006C19091570790FDBFCF84FFCECFF2CFC2
:101CE0008091560783FDDDCFC8CF8091560783FDD5
:101CF000F9C09091570791FFF0CFC4EED0E0BDCF6F
:101D00008091560785FFB9CFC9E2D0E0B6CF809168
:101D1000560785FFB2CFC5E3D0E0AFCF809156071D
:101D200086FFABCFCAE2D0E0A8CF8091560786FFEE
:101D3000A4CFC1E3D0E0A1CFCF3BD10518F6C85A5C
:101D4000D0E0CC0FDD1FC05CDE4F0990D881C02DE4
:101D5000D46493CFC11540E2D40758F4C11581E093
:101D6000D80708F08ACFC03FD10508F4ABCFD065C3
:101D700084CFC11590E4D90708F4A4CFDF70D06AEE
:101D80007CCFC11525E5D20700F5C11534E5D30791
:101D900008F08AC0C11543E5D40708F071C0C11529
:101DA00082E5D80708F467C0CE018370992721E047
:101DB00030E002C0220F331F8A95E2F7C695C69520
:101DC00080E2C89FE001112452C0C11599E5D907EE
:101DD000A8F4C11528E5D20708F06BC0C11536E597
:101DE000D30708F06FCF8C2F0E94AA0DC82FD0E028
:101DF000DC2FCC27CC27DF71D0623FCFC1154AE55D
:101E0000D40708F45BC0CE0190568115904208F0CB
:101E100059CF8D2F8F710E94AA0D90E0982F88279F
:101E200088279F719C012C2BE901E6CFC55AD0E091
:101E3000C35CDE4FC881D0E0D0641FCFCE01E4E0A8
:101E400096958795EA95E1F783702C2F2695269530
:101E5000237040E2249F90011124382B8C2F837033
:101E6000C1E0D0E002C0CC0FDD1F8A95E2F7C22BA3
:101E7000D32BDC6802CFDC2FCC27C16FD06AFDCE1C
:101E8000CE018370992721E030E002C0220F331F7A
:101E90008A95E2F7C695C69590E2C99FE0011124A4
:101EA000C22BD32BDA68E9CEDC2FCC27C46FD06AE3
:101EB000E4CEDC2FCC27C06FD06ADFCE8C2F8F70A2
:101EC0000E94AA0D34E0D695C7953A95E1F7CF70F8
:101ED0009C2FEC01D069D1CEC9E3D0E0CECEC2EECA
:101EE000D0E0CBCEC6EED0E0C8CE809144038111C5
:101EF0001092440308958095909143039823909302
:101F000043030895809120039091EF02981301C03C
:101F100008958F5F8770FACF2EE0929F800D112475
:101F2000982F977086958695869523E0829FF0017D
:101F30001124E853FD4F50E040E080E0219130E073
:101F4000092E02C0369527950A94E2F721703327AF
:101F5000042E01C0220F0A94EAF7822B4F5F5F4FD5
:101F60004330510559F708952EE0929F800D1124BA
:101F7000982F977041E001C0440F9A95EAF7869533
:101F80008695869593E0899FF0011124E853FD4FD3
:101F900090E080E070E05191DF0111979B01082EE5
:101FA00002C0369527950A94E2F7217021952527DE
:101FB000242325272C9301968330910561F70895FA
:101FC000982F92959F7011F0892F94E0282F2695D5
:101FD000269511F09E5F822F869509F09F5F892FCD
:101FE0000895BF92CF92DF92EF92FF920F931F93CB
:101FF000CF93DF93182FB62ED22E86E0489FE001B4
:102000001124CC53DE4FFE01F49086E0C82EC10EA1
:1020100081E0E22EE82600E06B2D600F4E2DF0FEF1
:102020004D2D812F0E943E0AF6940F5F0830A1F7D4
:102030002196FE01F4901F5F1C11EDCFDF91CF912F
:102040001F910F91FF90EF90DF90CF90BF90089578
:10205000FF920F931F93CF93DF93182F062FF22E2B
:10206000EA014991411106C0DF91CF911F910F9173
:10207000FF9008952F2D602F812F0E94F10F49911D
:102080001A5FF0CFEF92FF921F93CF93DF93C82F89
:102090007B0113E0180F442371F067E10E948E0A60
:1020A00021E0A70165E1812FDF91CF911F91FF9082
:1020B000EF900C942810D1E041E063E18C2F8D0F5C
:1020C0000E943E0ADF5FD631B9F7D1E041E06DE111
:1020D0008C2F8D0F0E943E0ADF5FD631B9F749E0A1
:1020E00064E18C2F0E947A0A49E064E186E18C0F5A
:1020F0000E947A0A20E0D5CFCF92DF92EF92FF9232
:102100000F931F93CF93DF936C017B0164E670E024
:1021100088E70E94E233EC0197FD12C010E000E076
:10212000F601E00FF11F849164E670E00E945C34D8
:10213000EC01892B29F40F5F1F4F0E151F0581F746
:102140000E94DF34CE01DF91CF911F910F91FF905C
:10215000EF90DF90CF9008958091490790914A07C2
:10216000992361F0811108C062E070E080E79CE093
:102170000E947C10892B19F080914907089581E015
:1021800080934907F9CF8093580770935A0760935B
:102190005907809180078430F9F48093E9008FEF2C
:1021A0009091E800815095FD06C095ED9A95F1F764
:1021B00000008111F5CF8091E80085FF0DC050E04F
:1021C00040E063E070E088E597E00E945D08809160
:1021D000E8008E778093E8000895BC0184E00C94B9
:1021E000C310BC0183E00C94C3109C0184E0809375
:1021F000E9009FEF8091E800915085FD06C085EDD4
:102200008A95F1F700009111F5CF8091E80085FFE4
:102210000CC050E040E066E070E0C9010E945D083B
:102220008091E8008E778093E8000895CF93DF9344
:10223000EC01809134018823B1F18091560787FF2A
:1022400032C060E284E08093E9008FEF9091E80073
:10225000815095FD06C095ED9A95F1F7000081112A
:10226000F5CF8091E80085FF1BC08091340170E0BC
:1022700050E040E0811104C050E040E068E070E0D0
:10228000CE010E945D088091E8008E778093E8007F
:1022900080E2FE01AEE5B7E001900D928A95E1F78C
:1022A000DF91CF91089568E081E0CDCF81E0809308
:1022B000E00080E28093D8001092C9008FE19EE494
:1022C0000197F1F700C0000087E090EBDC018093FC
:1022D0008E0790938F07A0939007B093910788E1A2
:1022E0009CE00FB6F894A895809360000FBE909381
:1022F0006000FFCFCF93DF93C7ECD2E060E0CE0168
:102300000E94DB352196C11584E0D807B9F7DF912B
:10231000CF9108956F927F928F929F92AF92BF92CA
:10232000CF92DF92EF92FF920F931F93CF93DF93A1
:1023300082E7C82E8CE0D82E9BEEE92EF12CE70127
:10234000C85AD10936011BC0F50185909490692DBA
:10235000C8010E94DB35682DC80101960E94DB355B
:1023600082E0A80EB11C0E5F1F4FC017D10761F7A6
:102370008CE1680E711C6C96CE15DF0529F08E017C
:102380000C5111095301E0CF7E0188EAE80EF11CDF
:1023900088EAC80ED11C8BE8E81683E0F80679F6C7
:1023A000DF91CF911F910F91FF90EF90DF90CF9031
:1023B000BF90AF909F908F907F906F900895CF9334
:1023C000C82F6FEF811162E283E290E00E94DB355B
:1023D0006FEFC11163E084E290E00E94DB356FEFA4
:1023E000C11160E285E290E0CF910C94DB3580E092
:1023F0000E94DF1160E086E290E00E94DB350E94DF
:102400008A110E947A1181E00C94DF11682F86E016
:1024100090E00C94DB358091420581FF07C08D7FF1
:10242000809342050E9406120C94A50B089580919A
:10243000420581FD07C08260809342050E9406121A
:102440000C94EA0A089580914205982F987F79F0BC
:10245000885080934205887F91E009F490E0809154
:10246000420590FB80F9809342050E9406128091FC
:1024700042058695869586950C947E0B8091420543
:10248000982F969596959695913140F49F5F990F68
:10249000990F990F8770892B80934205809142058F
:1024A0008160809342050E940612809142058695C4
:1024B000869586950C947E0B0F931F93CF93DF9395
:1024C000C42FD0E0CC0FDD1F2CE1629FC00DD11DC9
:1024D000112438EA839FC00DD11D1124CE018796A7
:1024E0000E94C735082F10E0102F0027CE018896D4
:1024F0000E94C7359801282BC901DF91CF911F9108
:102500000F910895462F843038F4763028F46E30D9
:1025100018F4672F0C945C1290E080E00895CF923D
:10252000DF92FF920F931F93CF93DF936C01009183
:102530008A0780914503082BC7E0D0E010E0FC2E0D
:10254000C8010C2E02C0959587950A94E2F780FD8C
:102550000CC02197A0F7F12C8F2DDF91CF911F9107
:102560000F91FF90DF90CF900895B6018C2F0E94BD
:1025700082120E94ED0D019761F3EECFCF93DF93AE
:10258000EC010E948F12BE010E948212DF91CF9156
:102590000C94ED0DFC01808191810E94BE129295F8
:1025A0009F70963091F058F4925F9F70923058F47B
:1025B000803F19F030F4883E30F481E008959A5F4E
:1025C000F4CF843FD1F380E00895883EB0F3813F9B
:1025D000D1F7F3CF83E290E00E94C735823289F4CD
:1025E00084E290E00E94C735833059F485E290E0A0
:1025F0000E94C73591E0803209F090E0892F817008
:10260000089580E0FCCFCF9384E090E00E94C7352E
:10261000C82F82E290E00E94C735982F8C2FCF916F
:102620000895E8E4F5E080E092E0DF019C011D926E
:1026300021503040E1F78FEF9FEF90934705809353
:102640004605089580913D0580FD0AC0EDEBF3E05D
:10265000118210821282339654E0ED34F507C1F7EF
:10266000229A35B13B7F25B124604FB7F8948DEBAA
:1026700093E0FC015191CF0168E025B9000000C052
:1026800057FF35B9550F000000C000C000C035B974
:1026900000C06A9591F7F4E08D349F0751F74FBF62
:1026A0008FE594E00197F1F700C0000008954F9284
:1026B0005F926F927F928F929F92AF92BF92CF92D2
:1026C000DF92EF92FF920F931F93CF93DF93FC0162
:1026D0006280448081E08483E0EFFAE07490EFE66A
:1026E000FBE0E491CDE4D4E03DEBE32E33E0F32EC8
:1026F0004DE3C42E45E0D42E52E0A52EBB24B39466
:1027000088248A94912C55245A94E7190E2F10E0AE
:1027100082E0861530F080913E05888380913F05E8
:102720008983411021C01B821A8297014A816981E5
:1027300088810E94E30B259683E0E80EF11CCC16FD
:10274000DD0631F7DF91CF911F910F91FF90EF9050
:10275000DF90CF90BF90AF909F908F907F906F90C1
:102760005F904F900C9422138B818823E9F0815065
:102770008B83859DC00111246C8170E00E94E3343D
:10278000FB01FF27E051F54F8491E82FE719E59D04
:10279000C0011124B8010E94E33480914005689F74
:1027A000B00111247A83C1CF0E949D35209140054C
:1027B000269521582A9DA0012B9D500D1124452FAF
:1027C0005527841795070CF0B0CF82E0861588F462
:1027D0000E949D35B4010E94213588830E949D3559
:1027E00020913F052695622F70E00E942135280F29
:1027F00029831A8280914005893C20F088EC8C83E3
:102800008B8393CF8431D8F784E1F9CFEF92FF9295
:102810000F931F93CF93DF938C01CDEBD3E0F12C7B
:10282000E12CF801948160913F0580913E05F8E12B
:10283000EF16F104FCF49923F9F09E014091400554
:102840000E94E30B2FEFE21AF20A239680E3E816C8
:10285000F10439F70E942213F801848190E0019677
:10286000817099278483DF91CF911F910F91FF9001
:10287000EF900895992309F39E0140E0E1CF8F92F4
:102880009F92AF92BF92CF92DF92EF92FF920F93FF
:102890001F93CF93DF93EC014C81042F10E098013C
:1028A000D8010E9463369B01AC010E942E364B0179
:1028B0005C01E0E2F0E0E01BF10BA5E5B0E0AC016B
:1028C0009B010E942E366B017C019F01DF010E945B
:1028D00042359B01AC010E9439369B01AC01280DA9
:1028E000391D4A1D5B1DC701B6010E944136F22EFB
:1028F000822F90E039E23F15D8F143E0249F900108
:10290000112435952795122F10959DEBC92E93E034
:10291000D92E00E085E5E82EEF188E2D01FD8F2DD4
:102920009601412F60913F050E94E30B0F5F53E03A
:10293000C50ED11C003389F70E9422139C8181E0CF
:10294000992319F0903219F48FEF8093310180911F
:102950003101890F8C83DF91CF911F910F91FF90EF
:10296000EF90DF90CF90BF90AF909F908F900895A1
:1029700025E530E0A901481B590BCA019A01220F35
:10298000331F280F391F37FFBCCF2F5F3F4FB9CF01
:102990000F931F93CF93DF93CDEBD3E0FE01118212
:1029A00010821282339684E0ED34F807C1F710E00C
:1029B00000E08091BB03082E000C990B0817190743
:1029C0008CF180913001082E000C990B8017910733
:1029D0004CF19E014091400560913F0580913E057C
:1029E0000E94E30B0F5F1F4F23960033110509F779
:1029F0000E94221380912F019091BB03980F909316
:102A0000BB0320913001280F20933001121614F4DB
:102A10009F321CF0819580932F01DF91CF911F9100
:102A20000F910895198218821A82DCCFBF92CF923B
:102A3000DF92EF92FF920F931F93CF93DF93FC01EE
:102A40008281DD24DA9480FD02C0DD24D3940DEB75
:102A500013E0D0E0C0E020E3B22EF8011182108232
:102A6000128294E0E92EF12CC12C8091BA038C0DD6
:102A700081330CF43DC06B2D0E941335892F082E35
:102A8000000C990B8C179D0791F4809140058E9D49
:102A9000A0018F9D500D112455954795559547954B
:102AA000980160913F0580913E050E94E30BCD0C9B
:102AB000F1E0EF1AF108C9F621960D5F1F4FC03300
:102AC000D10559F60E9422138091BA0391E0D912E0
:102AD00015C0811111C08FE28093BA03DF91CF91AD
:102AE0001F910F91FF90EF90DF90CF90BF900895CE
:102AF00087FFC5CF805DC3CF8150EECF90E00196B8
:102B0000BE010E942135E8CFEF92FF921F93CF9331
:102B1000DF93EC018DEBE82E83E0F82E10E08C8142
:102B200097014091400560913F05810F0E94E30BA2
:102B30001B5F83E0E80EF11C103F89F70E9422130F
:102B40009A818C8190FF08C08F5F8C83DF91CF9139
:102B50001F91FF90EF9008958150F7CF90913D0520
:102B600090FF0CC0EDEBF3E08183608342833396EA
:102B700094E0ED34F907C1F70C94221308950F93F4
:102B80001F93CF93DF9300D00F92CDB7DEB78C01A8
:102B90008091BC0381110AC09E012F5F3F4F40E826
:102BA0006FEF0E94E30B8A818093BC03F80164817C
:102BB000613069F08091BC0340E0662361F040E041
:102BC000623011F44091BC0380E060E004C0609189
:102BD000BC0340E080E00E94AE15F801848190E0E3
:102BE000019663E070E00E94213584830F900F907E
:102BF0000F90DF91CF911F910F910895CF93DF93A5
:102C000000D00F92CDB7DEB790913D0590FF0AC07E
:102C10009E012F5F3F4F0E94E30B4B8169818A81A8
:102C20000E94AE150F900F900F90DF91CF910895F5
:102C3000CF93DF93EC01EDE3F5E0438162818C817A
:102C40000E94FE158C818F5F8C83DF91CF91089558
:102C5000CF93DF93EC01EC81F0E0E051F54F44912C
:102C6000EDE3F5E0628181810E94FE158C818F5F2A
:102C70008C83DF91CF910895CF92DF92EF92FF92F4
:102C80006B017C010E94CD0BB701A60188E090E0AA
:102C9000FF90EF90DF90CF900C94ED355F926F92A4
:102CA0007F928F929F92AF92BF92CF92DF92EF92DC
:102CB000FF920F931F93CF93DF9300D00F92CDB766
:102CC000DEB7182F762E042F622E90913D0590FFCF
:102CD00029C0E92FE695AE2FB0E0AA59BD4F8C91DF
:102CE0008093B7039E7F923081F59E012F5F3F4F07
:102CF000812F0E94E30B4B8169818A810E94AE156E
:102D000010933E0570923F0500934005662051F0F8
:102D100060913D0570913E0580913F059091400581
:102D20000E943C160F900F900F90DF91CF911F9152
:102D30000F91FF90EF90DF90CF90BF90AF909F905A
:102D40008F907F906F905F900895823019F400917A
:102D50004005D6CF863019F410913E05D1CF893089
:102D6000D9F3893169F6E9518E2F8170582EE69595
:102D7000F0E0E551F54FA590B490BB248DEBE82E23
:102D800083E0F82ED12CC12C90E3892E912CC60122
:102D9000B4010E94E334812F511013C0860F9701B4
:102DA000402F672D0E94E30BCA0CDB1C83E0E80E6A
:102DB000F11C8DE4E81684E0F80649F70E9422131E
:102DC0009FCF861BECCFEDE3F5E0438124E0421B6F
:102DD00008F440E021E0628181810C944E16EDE31D
:102DE000F5E0438124E0420F08F44FEF21E06281D7
:102DF00081810C944E16EDE3F5E0628128E0621BC0
:102E000008F460E021E0438181810C944E16EDE3EB
:102E1000F5E0628128E0620F08F46FEF21E0438162
:102E200081810C944E16EDE3F5E0818121E0438130
:102E3000628184500C944E16EDE3F5E0818121E02F
:102E4000438162818C5F0C944E16809141058823EA
:102E500019F081508093410560913D0570913E05C8
:102E600080913F05909140050C943C16809141055E
:102E7000833018F48F5F8093410560913D05709118
:102E80003E0580913F05909140050C943C16EDE382
:102E9000F5E08BE1808311828FEF828380E883836A
:102EA000148260817181828193810C943C164091DF
:102EB0006C0350916D0360916E0370916F038FE00E
:102EC00090E00C94ED3580916D03813021F40E94E7
:102ED000A50B0C945717811101C081E0809332013A
:102EE0000E94EA0AF6CF69EE7EEF90E080E00E9451
:102EF000F93560E082E090E00E94DB3560E083E03D
:102F000090E00E94DB351092450360E084E090E0A1
:102F10000E94DB3560E082E290E00E94DB3560E0F9
:102F200085E090E00E94DB3560E086E090E00E9462
:102F3000DB356FEF87E090E00E94DB3540E050E04A
:102F4000BA0188E090E00E94ED3560E08DE090E00D
:102F50000E94DB3540E050E0BA0188E190E00E9439
:102F6000ED3560E087E190E00E94DB3540E050E025
:102F7000BA018CE190E00E94ED3570E060E080E203
:102F800090E00E94F93540E050E0BA0188E190E01D
:102F90000E94ED3580E00E94DF110E94F71140E0B1
:102FA00050E0BA018FE090E00E94ED3540E050E043
:102FB000BA0183E190E00C94ED3580914303909148
:102FC0004203892B8093A202909144039923A1F09C
:102FD000892B8093A202809134018823D9F18091BA
:102FE000560787FF37C08EE1E4EAF2E090E08150B7
:102FF00098F591110E94750F40E250E062E273E093
:1030000082EA92E00E94BA35892B59F180E2E2EA25
:10301000F2E0A2E2B3E001900D928A95E1F7E0912F
:103020004D07F0914E073097E1F0809134018823ED
:1030300059F08091560787FF07C08091A2028093C4
:10304000A30286E08093A2020280F381E02D82EA4F
:1030500092E0099486E0C8CF2191222341F29F5F3C
:10306000C6CF0895882321F00E947B0F0C94DD17B2
:103070000895882339F090914303982B909343034C
:103080000C94DD17089590E080E00E94D535893ECC
:103090009E4F11F40C94EA1280E008950E944318A8
:1030A00081110AC00E94731780914205847089685B
:1030B000809342050E94061286E090E00E94C73588
:1030C00080934205803920F087708868809342059C
:1030D00090914205892F817090FF04C0892F8695B9
:1030E000869586950C947E0B1F920F920FB60F92C9
:1030F00011242F933F934F935F936F937F938F93FD
:103100009F93AF93BF93EF93FF938091E10082FF72
:1031100009C08091E20082FF05C08091E1008B7FB1
:103120008093E1008091DA0080FF24C08091D80074
:1031300080FF20C08091DA008E7F8093DA0080913A
:10314000D90080FF9DC080E189BD82E189BD09B4BD
:1031500000FEFDCF81E08093800780915B078111A5
:1031600009C00E940D080E94D8088091E200846086
:103170008093E2008091E10080FF17C08091E2001F
:1031800080FF13C08091E2008E7F8093E2008091E7
:10319000E20080618093E2008091D8008062809399
:1031A000D80019BC85E0809380078091E10084FFFE
:1031B0002BC08091E20084FF27C080E189BD82E1BD
:1031C00089BD89B5982F917080FFFBCF8091D80081
:1031D0008F7D8093D8008091E1008F7E8093E10005
:1031E0008091E2008F7E8093E2008091E200816016
:1031F0008093E20080918107882309F447C084E02E
:1032000080938007809180078091E10083FF27C031
:103210008091E20083FF23C08091E100877F80934B
:10322000E10082E080938007109281078091E100A5
:103230008E7F8093E1008091E2008E7F8093E20098
:103240008091E20080618093E20042E060E080E0F3
:103250000E94A6088091F00088608093F000FF91A2
:10326000EF91BF91AF919F918F917F916F915F91FE
:103270004F913F912F910F900FBE0F901F90189577
:1032800019BC1092800710925B0774CF8091E30005
:1032900087FD93E090938007B5CF78941F921FB677
:1032A0001F9211248F939F93AF93BF9380915207E6
:1032B00090915307A0915407B09155070196A11D15
:1032C000B11D8093520790935307A0935407B09376
:1032D0005507BF91AF919F918F911F901FBE1F9077
:1032E00018959C014FB7F89480915207909153071D
:1032F000A0915407B09155074FBF821B930B0895BF
:103300002FB7F8948091520790915307A0915407DA
:10331000B09155072FBF089590913D0590FF3DC096
:103320009170811129C0926090933D05662351F000
:1033300060913D0570913E0580913F05909140055B
:103340000E943C1660913D05669570E04BE050E0B0
:1033500084E291E00E94AD35892BA9F01092B80368
:1033600081E08093B40320E04091400560913F05E7
:1033700080913E050C944E168B3210F09465D4CF9C
:10338000880F982BD1CF81E08093B8030E948019D9
:103390009093B2038093B103E3CF089580913D05EC
:1033A0008695815009F48AE261E00C948C19809131
:1033B0003D0586958F5F8B3208F081E061E00C94CB
:1033C0008C1990913D0590FF07C09695981720F0B5
:1033D000961710F40C94D71961E00C948C190E9484
:1033E00080199C019091AD038091AE03982B21F040
:1033F0003093AA032093A9039091AF038091B00367
:10340000982B21F03093A8032093A703E0914D0758
:10341000F0914E07309749F082E08093AB0304802F
:10342000F581E02D8BEA93E00994089590E080E027
:103430000E941C0A90E080E00E94060A109242035B
:103440000E94DD1786E0EBEAF3E0DF011D928A952A
:10345000E9F71092A5031092A4031092A6030C940E
:10346000EF1980938A070C94161A80918A07982F77
:103470009670963019F488600C94311A877FFCCFCF
:1034800021E030E001C0220F8A95EAF72095809173
:103490008A0782230C94311A909121038095892305
:1034A00080932103282F277091F4282F082E000CD9
:1034B000330B9217130659F09091570792FD07C0EE
:1034C0008595859585950E94401A1092210308954F
:1034D000CF93C0915707C2FB992790F9981799F09D
:1034E00080FBC2F9C09357076091560784E090E0D3
:1034F0000E94DB356C2F82E290E00E94DB3582E097
:10350000CF910C944C1ACF91089521E030E001C086
:10351000220F8A95EAF780918A07822B0C94311A40
:10352000809345030C94161A109243038091340142
:10353000E4EAF2E0882359F08091560787FF07C03C
:103540008EE1DF011D928A95E9F70C94161A86E048
:10355000F8CF1F93CF93DF93CDB7DEB7AA970FB6FF
:10356000F894DEBF0FBECDBF82E897E02091F10056
:10357000DC012D93CD01B7E08A389B07B9F7809124
:103580008307833009F472C0B8F4813009F449C06C
:10359000823009F4B3C08091E80083FF8BC2809130
:1035A0008207909183079A3008F084C2E92FF0E0F7
:1035B000EC58F94C0C9435358A3009F48EC08B30B8
:1035C00009F471C0893039F780918207813219F787
:1035D0008091860790918707009711F00297D9F69E
:1035E0008091E800877F8093E8008091E80082FF67
:1035F00038C09091F3008091F200029731F48091ED
:10360000F100813011F0863021F48091F100809337
:103610005D078091E8008B778093E8000E9487081F
:10362000BACF80918207813A09F0B5CF8091E80046
:10363000877F8093E8008091860790918707892B88
:1036400061F460E28EE597E070E00E9439098091B4
:10365000E8008B778093E8009ECF60E090E080E008
:10366000F3CF809180078111C0CF95CF80918207E1
:10367000813A09F090CF8091860790918707892B36
:1036800009F089CF8091E800877F8093E8008091DE
:10369000E80080FFFCCF809134018093F10080919D
:1036A000E8008E77B9CF80918207813209F073CF1D
:1036B0008091860790918707892B09F06CCF8091C4
:1036C000E800877F8093E8000E9487088091840744
:1036D000809334010E94941A5ECF809182078132D8
:1036E00009F059CF8091E800877F8093E8000E941D
:1036F00087088091850780935C074DCF8091820772
:10370000813A09F048CF8091E800877F8093E800F4
:103710008091E80080FFFCCF80915C07BECF8038AD
:1037200099F0823809F0C6C1809186078F70873082
:1037300008F0C0C18093E9008091EB0085FB8827E9
:1037400080F91092E90006C080917E0790917F0772
:10375000911182609091E800977F9093E8008093A8
:10376000F1001092F1008091E8008E779FC18823CC
:1037700009F48DC1823009F09DC1809184078111C7
:1037800090C1809186078F702FEF280F263008F0A8
:1037900091C18093E9002091EB0020FF82C193301A
:1037A00031F48091EB0080628093EB007AC19091BC
:1037B000EB0090619093EB0021E030E001C0220F1C
:1037C0008A95EAF72093EA001092EA008091EB00D4
:1037D0008860EACF81116EC1109184071F778091B4
:1037E000E3008078812B8093E3008091E800877F5D
:1037F0008093E8000E9487088091E80080FFFCCF5A
:103800008091E30080688093E30082E0111183E0FF
:10381000809380074FC18058823008F04BC12091BF
:103820008407309185072C3DE3E03E07A1F583E056
:103830008A838AE289834FB7F894DE01139620E0E9
:103840003EE051E2E32FF0E050935700E49120FF77
:1038500003C0E295EF703F5FEF708E2F90E0EA308B
:10386000C0F0C7968D939D932F5F243159F74FBFBA
:103870008091E800877F8093E8006AE270E0CE01E3
:1038800001960E9439098091E8008B778093E800C7
:1038900011C1C096E7CF8091860790918707432F8B
:1038A00055274330510509F44AC078F54130510598
:1038B00009F47AC08BE590E0E2E1FFE04230510587
:1038C00009F0F8C02091E800277F2093E8002091BC
:1038D0008807309189078217930708F49C0140E01C
:1038E0002115310509F065C0411163C08091E800E0
:1038F00082FDC9CF80918007882329F2853019F293
:103900008091E80083FFF2CFBECF4132510509F428
:103910003CC04232510509F0CDC08330910508F01A
:10392000C9C0FC01EE0FFF1FEC56FD4F0190F08166
:10393000E02D8F569D4FDC018C9190E01AC033270B
:1039400021303105D1F02115310561F022303105EA
:1039500009F0B0C0EFE7FFE0E4918E2F90E0EFE7D1
:10396000FFE007C0E1EAFFE0E4918E2F90E0E1EA9A
:10397000FFE0009709F49EC0A5CFEDE8FFE0E491D9
:103980008E2F90E0EDE8FFE0F4CF8330910508F052
:1039900091C0880F991FFC01E656FD4F0190F08100
:1039A000E02D89E090E08ECF82E190E0EDE6FFE04F
:1039B00089CF80918007882309F465CF853009F489
:1039C00062CF8091E80083FD5ECF8091E80082FDA8
:1039D0008DCF8091E80080FF83CF9091F30080919C
:1039E000F2002115310519F08830910550F041E0C1
:1039F000089709F040E08091E8008E778093E80016
:103A00006FCF44914093F1003196215031090196D6
:103A1000E8CF803809F04EC08091E800877F80931E
:103A2000E800809181078093F1009DCE811142C012
:103A3000109184071230F0F58091E800877F809321
:103A4000E800109381070E948708112311F084E099
:103A500005C08091E30087FDFACF81E08093800765
:103A600042E061EC81E00E94A60842E261EC84E061
:103A70000E94A60842E261EC82E00E94A60842E2AF
:103A800060EC83E00E94A6088091800713C08091BB
:103A90008407813079F481E0933009F080E08093ED
:103AA0007F071092E9008091E800877F8093E8000B
:103AB0000E9487088091E80083FF0AC08091E80097
:103AC000877F8093E8008091EB0080628093EB0019
:103AD000AA960FB6F894DEBF0FBECDBFDF91CF918F
:103AE0001F9108951F920F920FB60F9211242F93DA
:103AF0003F934F935F936F937F938F939F93AF9376
:103B0000BF93CF93DF93EF93FF93D091E900DF70E2
:103B10008091EC00C82FC17080FDC0E81092E900D0
:103B20008091F000877F8093F00078940E94A91A1A
:103B30001092E9008091F00088608093F000CD2B16
:103B4000CF70C093E900FF91EF91DF91CF91BF91CA
:103B5000AF919F918F917F916F915F914F913F9125
:103B60002F910F900FBE0F901F901895882379F119
:103B70009CEF980F913A38F4682F82EA92E00E9405
:103B8000A7090C94DD1790E2980F983050F48770D5
:103B900091E001C0990F8A95EAF7892F0E947B0F67
:103BA000F0CF9BE5980F933020F490E080E00C94E8
:103BB0001C0A98E5980F973120F490E080E00C946F
:103BC000060A803F20F00E947C0C0C94EF190895A7
:103BD000CF93C82F882309F46FC08CEF8C0F813AE4
:103BE000C0F580913401882311F18091560787FF39
:103BF0001EC0EC2FE695E695E695F0E0EE55FD4FFC
:103C0000828190E04C2F477021E030E002C0220F0B
:103C1000331F4A95E2F782239323892B91F06C2F6F
:103C200082EA92E00E94A7090E94DD170AC0E4EA36
:103C3000F2E08AEA92E02191C21789F38E179F077A
:103C4000D1F76C2F82EA92E00E94D109CF910C94B7
:103C5000DD1780E28C0F883068F4C77021E030E017
:103C600001C0220FCA95EAF780914303822B80930B
:103C70004303ECCFEBE5EC0FE33040F4F0E0E35C22
:103C8000FE4F808190E0CF910C941C0AE8E5EC0F88
:103C9000E73150F4F0E0EE0FFF1FE05CFE4F808153
:103CA0009181CF910C94060AC03F30F08C2F0E9476
:103CB000370DCF910C94EF19CF9108951F93CF93A7
:103CC000DF93182FCAE0D0E0893311F4C0E5D0E0CB
:103CD000812F0E94E81D8FE99FE00197F1F700C056
:103CE00000002197C1F7812FDF91CF911F910C9494
:103CF000B61D0F931F93CF93DF93C62FD42F022FA0
:103D0000FC0182818823A1F060938D070E948019B5
:103D100090938C0780938B07C77081E001C0880F58
:103D2000CA95EAF7DF91CF911F910F910C94391842
:103D300080918D07681335C080918B0790918C0717
:103D40000E947119883C910560F510E21D0FCD1796
:103D5000B9F080E28C0F883040F4C77081E001C078
:103D6000880FCA95EAF70E943218183048F481E0AB
:103D70009D2F977001C0880F9A95EAF70E94391815
:103D8000802F0E945E1E183098F4D77081E001C029
:103D9000880FDA95EAF7DF91CF911F910F910C947C
:103DA0003218C77081E001C0880FCA95EAF7F3CFD7
:103DB000DF91CF911F910F9108953F924F925F92A3
:103DC0006F927F928F929F92AF92BF92CF92DF922B
:103DD000EF92FF920F931F93CF93DF9300D000D009
:103DE0000F92CDB7DEB78C01FC0183819481892BC2
:103DF00031F08081918189238F3F09F0DBC50F90DD
:103E00000F900F900F900F90DF91CF911F910F9116
:103E1000FF90EF90DF90CF90BF90AF909F908F90EA
:103E20007F906F905F904F903F9008950E948F1207
:103E3000F82E682F89819A810E94B40F69817A8156
:103E40008F2D0E9482127C01F8018281882309F45F
:103E5000A3C5970122513F452031310508F05AC5CD
:103E60008FEF93E00E94C735FEEEEF0E57EC852EE4
:103E700052E0952E8823A1F180912103877009F4E7
:103E8000BECFF8018281882309F4B9CF809157070A
:103E900082FDB5CF82E00F900F900F900F900F90A2
:103EA000DF91CF911F910F91FF90EF90DF90CF9016
:103EB000BF90AF909F908F907F906F905F904F904A
:103EC0003F900C944C1A811424E09206A9F2C4018C
:103ED0000E94C735811101C0EA943FEF831A930A0B
:103EE000E110F1CF1C821B82442443944AE0342E1B
:103EF00074018FEFE81AF80AC4010E94C73589835C
:103F00001A82882309F4B8CF9FEF980F933000F5F9
:103F10008A83498292E0890E911CC7010E94C735AD
:103F20008B83882309F4A8CFFE0131967F01F70126
:103F300020812223E9F2213009F049C09181828158
:103F4000913041F4F2E0EF0EF11C0E945E1E09C0B8
:103F50004701EACF923049F422E0E20EF11C0E94C0
:103F6000E81D3FEFE31AF30AE2CF933031F432E079
:103F7000E30EF11C0E94B61DF4CF943021F08FEFB8
:103F8000E81AF80AEECF92E0E90EF11C30E020E0EA
:103F9000B7016F5F7F4FF70141818053990B8A30E2
:103FA000910550F021503109E0F28FE99FE001972F
:103FB000F1F700C00000F6CF329EF001339EF00D05
:103FC00011249C012E0F3F1F842F7B01E1CFE22F94
:103FD000F0E0EC5CF84F5490822F8695869586959C
:103FE00090E0FC01EC5DF84F64902770712C022E7C
:103FF00002C0759467940A94E2F7E1E06E22772498
:10400000FC01EC5EF84FA490B12C022E02C0B594D6
:10401000A7940A94E2F7F1E0AF22BB24FC01EC5F25
:10402000F84FC490D12C02C0D594C7942A95E2F7DA
:1040300021E0C222DD246114710419F081EE0E9496
:10404000E81DA114B10419F086EE0E94E81D852D2B
:104050000E945E1EAB2819F086EE0E94B61D6728EE
:1040600019F081EE0E94B61DCD2809F47ACF8CE2BA
:104070006CCF81E00E94851A0E94351AFDCE81E046
:104080000E94401AF9CF82E0F5CF8091C6028823C2
:1040900019F01092C60270C44091C2025091C3023E
:1040A0006091C4027091C5022FB7F89480915207B5
:1040B00090915307A0915407B09155072FBF841BCF
:1040C000950BA60BB70B8C329140A105B105E8F416
:1040D00080916C0390E0209143032272A1F0099635
:1040E0006AE070E00E94213580936C0381E0809348
:1040F000490390916C03933009F080E080936B0347
:104100000E94571739C40196EBCF109249030E94C1
:10411000111380916E038E7F80936E03F1CF81E146
:104120000E94B10B809142050E940612A5CE80E04C
:10413000F7CF0E942312A0CE0E943E129DCE809106
:10414000420580FF09C08E7F809342050E940612BF
:1041500080E00E947E0B90CE80FD8ECE81608093A9
:104160004205813019F489E080934205809142052F
:104170000E94061280914205869586958695E9CF24
:1041800090914205892F8695869586958F5F8F71D0
:104190009770823198F4880F880F880F892B80934D
:1041A000420580914205887F91E009F490E080917A
:1041B000420590FB80F980934205DACF9093420547
:1041C000F0CF8091420581FF03C00E940B1254CEB4
:1041D0000E94171251CE27E245EE65EE03C526E296
:1041E00041EE60EEFFC427E245EE64EEFBC426E23A
:1041F00041EE62EEF7C428E241E0EFCF31E6E3168C
:104200003DE5F30609F473C585EAE8168DE5F80681
:1042100009F46DC526E1E2162CE5F20609F057C453
:10422000809143038A7A91E009F490E09093C70269
:1042300069E2811165E382EA92E00E94D1090E945D
:10424000DD171ACE80915607806227E0E2162CE532
:10425000F20609F4A7C080915607806138E0E316A2
:104260003CE5F30608F49EC08091560780649AC02E
:104270008DE0E8168CE5F80609F4ADC0B0F4809145
:1042800056078E7FEBE0EE16ECE5FE0609F48AC0D9
:10429000809156078C60FCE0EF16FCE5FF0608F401
:1042A00081C0809156078D7F7DC0809156078F7E9B
:1042B0002FE0E2162CE5F20609F474C0809156074F
:1042C000877F30E1E3163CE5F30608F46BC080918C
:1042D00056078F7D67C08DEFE8168CE5F80609F468
:1042E00082C078F5E5E1EE16ECE5FE0609F489C03A
:1042F000A0F480915607837F23E1E2162CE5F206B5
:1043000009F450C008F477C00E94941A909156079F
:10431000892F97FB87F9805845C08BEFE8168CE50D
:10432000F80609F44AC008F05AC080915707816026
:10433000EAEFEE16ECE5FE0609F008C58093570794
:1043400005C5F1E0EF16FDE5FF0609F466C098F437
:10435000809157078C7F3FEFE3163CE5F30671F33E
:10436000B0F180915707982F909591708E7F892B8F
:1043700090FB81F9E3CF91E6E9169DE5F90609F492
:1043800052C0E5EAEE16EDE5FE0609F453C0F2E090
:10439000EF16FDE5FF0609F0D9C460E03FC080914B
:1043A0005607826080935607D1C480915607846077
:1043B000F9CF809156078860F5CF809157078260CA
:1043C000BDCF0E94941A809156078068EBCF8091F0
:1043D00057078360B3CF809156078B7FE3CF8091DF
:1043E00057078E7FABCF809157078D7FA7CF8091E6
:1043F00056078F7BD7CF0E94941A809156078F77EC
:10440000D1CF8091560782FB992790F921E092271E
:1044100090FB82F990FB83F9C5CF61E08EE090E0DC
:104420000E94DB3593C490915607892F8F7E94FFAD
:104430008061B8CF90915607892F8E7F90FF816061
:10444000B1CF8091C70269E2811165E382EA92E00F
:104450000E94A709F4CE816080933D0561E08695B6
:104460000E948C1909CD4EEC59E167ED79E10E946B
:10447000C70B02CD47ED59E16EEC79E1F8CF4CE185
:1044800057E163E177E1F3CF4BEF56E167E077E186
:10449000EECF43EE56E16FEE76E1E9CF4FEE56E117
:1044A00063EE76E1E4CF46E357E165E277E1DFCF03
:1044B00061E081E0D5CF65E082E00E94E119DCCCCB
:1044C00068E086E0FACF64E18FE0F7CF67E185E14D
:1044D000F4CF62E289E1F1CF61E083E2C1CF0E94D3
:1044E000941AEFEFF4E32CE0E150F0402040E1F7C4
:1044F00000C000000E94561181E00FC380E00DC390
:10450000C7010E948C0FD82E19C32F2D2F70C22ED9
:104510008F2D807F19F0C29490EFC922DD20B9F071
:10452000CC2069F080E28E0D883010F0811009C037
:1045300080914303C82AC09243030E94DD178E2D49
:104540004DC080914203C82AC0924203F6CF8E2DFF
:104550000E94B61DCC2009F443C080E28E0D883045
:1045600010F0811004C08C2D0E947B0F06C0C094F7
:1045700080914203C822C09242030E94DD1730C0DE
:104580003F2D3F70C32E8F2D807F803219F0C29453
:1045900080EFC822882089F081E0881609F47FC066
:1045A000DD2009F489C0BB2009F47FC0F8018581B2
:1045B00080FFC5CF8F70858378C02091570722FF79
:1045C0004BC0DD2009F442C0CC2039F08091430378
:1045D000C82AC09243030E94DD1780E00E94E81DB4
:1045E000292D2850330B2430310510F40E94320A53
:1045F000AA2009F404CC8091210380FD00CCF801AD
:1046000012828595859585950E94851AC8010E941C
:10461000DD1E809121038595859585950F900F90DE
:104620000F900F900F90DF91CF911F910F91FF90FE
:10463000EF90DF90CF90BF90AF909F908F907F9042
:104640006F905F904F903F900C94401A80E00E94D2
:10465000B61DCC2029F287CFDD20A1F09091440334
:104660008C2D892BB11003C00E943918B9CFE1E01D
:10467000BE12FACF22FDB4CF981709F4B1CF8093C0
:104680004403AECFB11006C00E94750F8C2D0E945E
:104690003218A6CFF1E0BF1609F4A2CFF5CFDD2086
:1046A00031F025E02B1508F49BCF8C2DDDCF34E0C5
:1046B0003B1508F495CFEACFBB2041F3F9E38F1205
:1046C00021C12FEF37EE83E0215030408040E1F7E9
:1046D00000C000008E2D0E94B61D82CF8F2D8695C2
:1046E0008695837061F0813009F07ACFC7019370AD
:1046F000D11002C090E080E00E94060A71CFC7018D
:104700009370D11002C090E080E00E941C0A68CF34
:104710008E2DDD2029F00E94370D0E94EF1960CF09
:104720000E947C0CFACF8F2D837091F5D11058CF59
:104730004E2D429546954770440F440F8E2D8F7035
:10474000042E01C0880F0A94EAF72E2D2071E4FE92
:1047500007C02FE030E001C0220F4A95EAF720950C
:104760003F2D369536953370323069F050F44091D4
:104770004503313029F0822B84230E94901A30CFD8
:10478000842B822BFACF282B809145038227F5CFEB
:104790008695DD2011F08F2D8170882309F420CFBC
:1047A0004E2D429546954770440F440F8E2D8F70C5
:1047B000042E01C0880F0A94EAF72E2D2071E4FE22
:1047C00007C02FE030E001C0220F4A95EAF720959C
:1047D0003F2D369536953370323069F050F4409164
:1047E0008A07313029F0822B84230E94311AF8CEB7
:1047F000842B822BFACF282B80918A078227F5CF32
:10480000FF2DFF70FF2EDD2029F08F2F0E94851ACB
:104810008E2D2ACF8E2D0E9432188F2D0E94401A85
:10482000DFCE8E2D22EF8216B1F1281570F030EF19
:104830008316D1F091EF891691F0DD2009F45DC067
:10484000B1107DCE8F2D8F712AC0E3EF8E1651F1FE
:10485000F4EF8F12F2CF8091570782FF2FC08F2D78
:104860008F71DD20D9F21BC0DD2081F024E02B15F3
:1048700008F4B6CE2F2D2F7181E090E001C0880F93
:104880002A95EAF790918A078927AFCF35E03B1543
:1048900008F4A6CEEFCF8F2D8F71D110BFCF0E941D
:1048A000851A9ECE80E0DD2009F49FCF9F2D9F7159
:1048B00081E001C0880F9A95EAF797CFDD2091F04B
:1048C0008F2D8F71F82E0E94851A8091570782FDD7
:1048D00007C0E8E0FE9EC00111248360809321039D
:1048E0008F2DDDCF81E00E944C1AF1E0FB1508F01E
:1048F00077CE82E00E944C1A73CEBB2041F0893300
:1049000009F4DFCEEFE3FCE93197F1F7E1CE8F2D2B
:104910008F7184CFF0E1EF16FFE5FF0609F4A9CB14
:1049200021E1E2162FE5F20609F4ADCBF801918101
:10493000953011F590819630F9F4882309F4A5CBD0
:1049400080916E0380FD0EC00E94AC1080916E03BA
:10495000816080936E0381E08093C6028093490357
:104960000E9457170E949B096093C2027093C30272
:104970008093C4029093C502F8018281882309F4D0
:1049800016C1F701EB5BFC45E730F10508F082C189
:10499000E258F94C0C94353530E1E3163FE5F30667
:1049A00009F46DCB91E1E9169FE5F90609F0BECF58
:1049B00082E066CB85E0DE01119601900D928A952A
:1049C000E1F7F801228189819A8121112FCA0E9481
:1049D0008C0FF82E33CA94ECE9169CE5F90609F41D
:1049E00049CD43E157E16CE177E1E5ECEE16ECE50A
:1049F000FE0609F43CCD93C0F9ECEF16FCE5FF068A
:104A000009F447CD88F437ECE3163CE5F30609F4E6
:104A10003BCD47E057E16BEF76E198ECE9169CE57A
:104A2000F90609F424CD7BC0EAECEE16ECE5FE06AF
:104A300009F434CD45E257E166E377E1FBECEF168C
:104A4000FCE5FF0609F413CD6AC021EDE2162CE562
:104A5000F20609F438CDB8F48EECE8168CE5F806C9
:104A600009F429CD08F424CDEFECEE16ECE5FE06B2
:104A700009F426CD6EE089E0F0EDEF16FCE5FF06C7
:104A800009F41BCD4CC024EDE2162CE5F20609F426
:104A900020CD78F482EDE8168CE5F80609F416CD01
:104AA00061E088E193EDE9169CE5F90609F4D8CCBC
:104AB00036C0E5EDEE16ECE5FE0609F40DCD6AE232
:104AC00085E2FDE5EF16FF0609F4F7CC28C02AE5DC
:104AD000E2162DE5F20609F40FCD68F4E1148CE539
:104AE000F80609F4FCCC9EEDE9169CE5F906B9F44C
:104AF0000E947317C1C9EBE5EE16EDE5FE0609F459
:104B0000FDCCFCE5EF16FDE5FF0649F48091570763
:104B100082FB882780F991E089270E94681AF801B2
:104B20008281E080F180882309F4EACCC7010E94E9
:104B30008F12D82E682FC7010E94B40FB7018D2D98
:104B40000E9482120E94ED0D7C01882EF801D28015
:104B5000B580B2943FE0B322809121038770C1F009
:104B6000AD2CDD20B1F08F2D807F803421F080E2EC
:104B70008E0D883068F08091570782FD09C082E071
:104B80000E944C1A809121038770AA24A39481115A
:104B9000A12C9F2C92942FE09222FBE0F91508F4AF
:104BA0001FCDE92DF0E0EB57F94C0C94353523EF90
:104BB000E2162CE5F20609F412CBC0F488EDE816F3
:104BC0008CE5F80609F407CB99EDE9169CE5F906A2
:104BD00009F411CBE7EDEE16ECE5FE06A9F426E2AA
:104BE00041EE61EEC8010E94791E46C9F5EFEF164D
:104BF000FCE5FF0609F4FBCA08F4F5CA36EFE31634
:104C00003CE5F30609F4C0C0F6E1EF16FCE5FF064B
:104C100009F417CC8091430382722CECE2162CE548
:104C2000F20609F440CC08F010CF96ECE9169CE5AA
:104C3000F90609F424CC08F0DFCEF3ECEF16FCE51E
:104C4000FF0609F410CC08F0C6CE32ECE3163CE5C2
:104C5000F30609F064CF80913D0580FFFCCB8E7F89
:104C600080933D0560913D0570913E0580913F0523
:104C7000909140050E943C161092B8033FEF80E7E8
:104C800092E0315080409040E1F700C000000E9467
:104C90002213F2C883EFE8168CE5F80609F49FCAE0
:104CA00008F064C0E8EDEE16ECE5FE0609F493CAE0
:104CB000F9EDEF16FCE5FF0609F49DCA27EDE216B3
:104CC0002CE5F20609F48BCF10928D07F3E0EF1676
:104CD000FDE5FF0608F092CA2AEFE2162CE5F2067F
:104CE00030F4C70182509C45449708F093CA0E9453
:104CF0000313909357078093560791E1E9169CE5BB
:104D0000F90609F474CB08F0E6CAF9E0EF16FCE501
:104D1000FF0609F456CB08F0ABCA35E0E3163CE5D4
:104D2000F30609F446CB08F08DCA93E0E9169CE53A
:104D3000F90609F434CB08F038CB8091560781602E
:104D4000F2E0EF16FCE5FF0609F42CCB6091560764
:104D5000F090570784E090E00E94DB356F2D82E2EF
:104D600090E00E94DB350E94941A86C835EFE31666
:104D70003CE5F30609F43BCA08F435CA96EFE91698
:104D80009CE5F90609F0A0CF27E245EE66EE2ACFB2
:104D90001F93CF93DF938091EE02807FA9F48091DF
:104DA000EB02882389F080912003D091EF0260917B
:104DB000E9027091EA02A091EC02B091ED02C62FD7
:104DC000C72316E0D81304C0DF91CF911F91089537
:104DD00090E0109711F0CF3F19F401968770F2CF51
:104DE000189F9001199F300D1124F901E051FD4FDA
:104DF00041814713F2CF40814613EFCF42814111E9
:104E0000ECCF438154814A1B5B0B483C510528F78A
:104E10008091EE028F7080618093EE02F901EB5079
:104E2000FD4F80818F708061808389EE92E00E94C7
:104E3000DD1EDF91CF911F910C94820FAF92BF9234
:104E4000CF92DF92EF92FF920F931F93CF93DF9356
:104E5000CDB7DEB761970FB6F894DEBF0FBECDBFFA
:104E60008C0185E0F801DE011D9601900D928A9576
:104E7000E1F7F801E28089EEA82E82E0B82E609179
:104E8000EC027091ED026115710509F432C1909147
:104E9000E9024091EA02892F84238F3F09F429C156
:104EA00020813181C380D480F090EB02F601E61BB3
:104EB000F70BFF2009F4E8C08091EE02582F507FD5
:104EC000E83CF10508F0ABC0511177C0FE2C43134C
:104ED00021C092131FC0E1101DC08F7080618093AC
:104EE000EE02C5010E94DD1E8091EE02F80185836D
:104EF0008F2D61960FB6F894DEBF0FBECDBFDF9148
:104F0000CF911F910F91FF90EF90DF90CF90BF90C6
:104F1000AF900895CD2829F0822F83238F3F09F089
:104F200003C180E0F82FF170DF2E80FF3CC080913C
:104F300020034091EF0256E0841315C02D873E8771
:104F40008D859E850E94BE12292F22952F702230BA
:104F5000F0F0243018F59F70F1F0F8019581907F02
:104F6000D1F4D12C1EC090E0589FF001599FF00D54
:104F70001124E051FD4F6181361306C06081261374
:104F800003C06281E6120FC001968770D5CF9F7073
:104F900011F0882331F3805E883018F3C8010E9435
:104FA000DD1EFD2CA5CFEE2009F4A2CF8091EE02EC
:104FB00081608093EE02F12C9BCF431306C09213C5
:104FC00004C0F801EE2009F479C0C8010E94CA1299
:104FD000882309F1EE20F9F08091EE02803270F022
:104FE0002091E9023091EA0238872F831986DB8607
:104FF000CA868C87CE0107960E94DD1E86E0F801E6
:10500000A9EEB2E001900D928A95E1F70E94C826C0
:10501000FF24F3946DCFC8010E94DD1EF9CF51111A
:105020000AC089EE92E00E94DD1E86E0F501119231
:105030008A95E9F7C0CF43130FC092130DC0E1105A
:105040000BC0F8018583C8010E94DD1E86E0F501D2
:1050500011928A95E9F74CCFC8010E94CA128823A1
:10506000D1F2EE20C1F28091EE02803238F220912E
:10507000E9023091EA023A8329831B82DD82CC82E5
:105080008E83CE010196B8CFE83CF105F8F6FE2CF0
:10509000EE2009F243131FC092131DC08091EE024F
:1050A00080FD10C0982F907F69F0F8018583903FB4
:1050B00031F0982F907F905F8F70892B8583C80186
:1050C0000E94DD1E86E0F801A9EEB2E001900D928B
:1050D0008A95E1F70DCFC8010E94CA1281118ECFC7
:1050E0008091EE0281608093EE02C8010E94DD1E75
:1050F000FFCEEE2009F48FCFC8010E94CA12F82E0D
:10510000882309F488CF86E0F801A9EEB2E0019087
:105110000D928A95E1F78091E9029091EA020E944E
:10512000BE120E94C826E4CE81E08E25FBCE1F93DE
:10513000CF93DF93CDB7DEB767970FB6F894DEBF96
:105140000FBECDBF4B8B5C8B6D8B7E8B8F8B6111BC
:10515000109242031A8A198A85E0FE017396DE01D5
:105160001D9601900D928A95E1F786E0FE013D962D
:10517000DE01179601900D928A95E1F7CE01079610
:105180000E941E27882389F016E0809120039091C9
:10519000EF02891349C067960FB6F894DEBF0FBEC1
:1051A000CDBFDF91CF911F91089586E0FE01379624
:1051B000DE01119601900D928A95E1F78A859B8513
:1051C000892B11F38F81988589238F3FE9F22091F4
:1051D000EF0230E0C90101968770992740912003C2
:1051E0004817190671F40E94941A1092EF02109257
:1051F000200386E0E9EEF2E0DF011D928A95E9F7EF
:10520000C3CF96E0929FD001939FB00D1124A0517F
:10521000BD4FFE01319601900D929A95E1F7809372
:10522000EF020E94820FB0CF819FC00111248051F4
:105230009D4F0E941E27882309F4ADCF8091200343
:1052400090E0019687709927809320039ECF6F92FC
:105250007F928F929F92AF92BF92CF92DF92EF9206
:10526000FF920F931F93CF93DF93CDB7DEB72C97A9
:105270000FB6F894DEBF0FBECDBF8E010F5F1F4F7C
:105280008CE0F80111928A95E9F752E1E52E52E09F
:10529000F52E680166246394712C76E2872E72E005
:1052A000972EF70181917F018F3F09F445C0F89453
:1052B000E82FE295EF70F0E021A18F70A30102C00A
:1052C000440F551F8A95E2F7CA01922F982B91A39C
:1052D00092A18095892382A3789400C0E8E1F2E04E
:1052E00021E030E0B12CA12C41914F3F09F488C05E
:1052F000A42FA295AF70B0E090968C9190E04F7083
:1053000002C0959587954A95E2F780FD79C0C9015D
:10531000A82AB92A220F331F8E169F0629F7F701F4
:10532000319780818F3F11F00E94930D50EA5A957A
:10533000F1F7F601B182A082F2E0CF0ED11C48E174
:10534000E41642E0F40609F0ACCF4CE050E0B801BE
:1053500081E593E00E94BA35FF24F394009709F4A5
:10536000F12C892B09F44FC08CE0F801A1E5B3E0E2
:1053700001900D928A95E1F781E0809348030E94A5
:105380008019909347038093460380914603909140
:1053900047030E9471190597D0F1809151039091B4
:1053A00052039093990380939803809153039091B3
:1053B000540390939B0380939A038091550390919B
:1053C000560390939D0380939C0380915703909183
:1053D000580390939F0380939E038091590390916B
:1053E0005A039093A1038093A00380915B03909153
:1053F0005C039093A3038093A2031092480307C019
:1054000090E080E085CF809148038111BECF8091EC
:10541000160190911701892B41F080911301909111
:10542000140189238F3F09F057C180911B0190918E
:105430001C01892B41F08091190190911801892359
:105440008F3F09F02FC10E94320A90915003992397
:10545000A1F00E949B0960934C0370934D038093CD
:105460004E0390934F031092500310924B0381E030
:1054700080934A03109249033BC0082F017081FBBF
:10548000112710F9D0908A0780914A03882361F18F
:1054900040914C0350914D0360914E0370914F0326
:1054A0002FB7F8948091520790915307A091540719
:1054B000B09155072FBF841B950BA60BB70B883CEB
:1054C0009105A105B10580F00E946317EE24E394D5
:1054D000E0924B0310924A0380916E0380FF1EC03E
:1054E0000E94AC10E092490380914B0381111DC0D2
:1054F0008F2D2C960FB6F894DEBF0FBECDBFDF9177
:10550000CF911F910F91FF90EF90DF90CF90BF90C0
:10551000AF909F908F907F906F9008950E9411138D
:1055200080916E038E7F80936E0390916C038091C7
:105530006E03817091112BC009F49CCF80914903B7
:10554000882309F497CFE4EBF7E01491D12CB12C28
:10555000A12CE12C00E06D2D600F41E010FF40E038
:105560008E2D0E943E0A16950F5F0830A1F75FEF5F
:10557000A51AB50AE394F501EC54F84F1491E7FE2F
:10558000E9CF88E0D80EE0E2DE12E3CF73CF8823C4
:1055900009F470CF8D2D0E94E00F90914903911175
:1055A0000DC090910601891309C0909105019113D6
:1055B00005C090910401901709F45CCF8093060117
:1055C00010930501009304010E94111380918A0732
:1055D0000E94E00F182F8CE0189F802D11246BE0A3
:1055E0008B5F0E948E0A21E0111120E040E365E10B
:1055F00088E00E94F10F21E0113009F020E041E342
:1056000065E184E10E94F10F21E0123009F020E011
:1056100042E365E180E20E94F10F21E0133009F0DE
:1056200020E043E365E18CE20E94F10F10E041E0ED
:105630006EE0812F0E943E0A1F5F1038C1F70E9462
:10564000320A182F117081FB442740F965E371E09D
:1056500080E50E944210412F69E371E089E60E94D3
:10566000421000916C03802F90E0FC01E259FE4F44
:105670001081880F991FFC01E250FE4F408151813B
:1056800020E062E0812F0E942810023009F0F2CE63
:1056900060E08CE00E94BC0A61E088E5810F0E9416
:1056A000BC0AE8CE80911A01882309F4CCCE10926E
:1056B0001A010E9480198160782F90931C018093B9
:1056C0001B01409118015091190160911A018091BC
:1056D0001C010E949728B7CE80911501882309F4F8
:1056E000A4CE109215010E9480198160782F9093AA
:1056F000170180931601409113015091140160919C
:105700001501809117010E9497288FCE1F921FB616
:105710001F9211248F939F93AF93BF938091510752
:10572000811113C08091520790915307A0915407A3
:10573000B09155074196A11DB11D809352079093DA
:105740005307A0935407B0935507BF91AF919F9112
:105750008F911F901FBE1F9018951F920F920FB62A
:105760000F9211242F933F934F935F936F937F93E7
:105770008F939F93AF93BF93EF93FF9380913301E8
:105780008230A1F08F5F80933301FF91EF91BF9141
:10579000AF919F918F917F916F915F914F913F91C9
:1057A0002F910F900FBE0F901F90189581E080935E
:1057B0003301209132018091440590914505019675
:1057C00048E7249F90011124B9010E94E33490938B
:1057D000450580934405B901660F672F661F770B57
:1057E00071950E94E33467FD6FE780914305823035
:1057F00041F4603451F480916F008E7F80936F008C
:1058000004C0813011F46F37B1F3E62FF0E0E051BE
:10581000F44F2491A0918600B091870030E00E945F
:1058200063362FEF30E040E050E00E944136C9017E
:1058300061E170E00E94E33480914205869586958F
:105840008695282F269FC001279F900D11240E9426
:10585000F60A909389008093880097CFCDB7DEB782
:10586000AC970FB6F894DEBF0FBECDBF84B7877F6D
:1058700084BF0FB6F894A8958091600088618093EA
:105880006000109260000FBE80E890E00FB6F894C0
:1058900080936100909361000FBE85B7806885BFDB
:1058A00085B7806885BF81E99DE09093A1028093D0
:1058B000A0020E940D080E94D8088091E200846036
:1058C0008093E2007894809180078823A1F0109162
:1058D000E9001F709091EC00892F817090FD80E8A5
:1058E000182B1092E9008091E80083FD0E94A91A0C
:1058F0001F701093E90082E084BD93E095BD9AEF9C
:1059000097BD80936E000E94EA12811102C00E942E
:10591000F71102E112E0E8E1EE2EE2E0FE2ED801FE
:105920008D918D018F3F11F00E94930DE016F106CD
:10593000B1F708E112E076E2E72E72E0F72EF80107
:1059400081918F018F3F11F00E94930DE016F106B7
:10595000B1F78CE0E8E9F3E0DF01282F1D922A95EA
:10596000E9F7E1E5F3E0DF011D928A95E9F78FE0C1
:1059700090E00E94CF3560936C0370936D03809329
:105980006E0390936F036F3F51F410926C0381602C
:1059900080936E0381E080936D030E94571781E02E
:1059A000809350030E944318811102C00E94731714
:1059B00082E090E00E94C73580935E030E9403134B
:1059C00090935707809356070E942729EFE3FCE93D
:1059D0003197F1F700C000000E94272980919803B9
:1059E00080FF08C06FEF7FEF90E080E00E94F93504
:1059F0000E94561183E090E00E94C7350E94901AE1
:105A0000259A2D9A82E88093800089E18093810015
:105A10008FEF9FEF90938700809386000E944E182F
:105A20008091420581FD0E94EA0A1092930380E86A
:105A3000809348070E94DC336DE070E087EC99E0CA
:105A40000E947C10892BE9F48091930363E070E05D
:105A500081FD94C284EC99E00E947C10892B89F42A
:105A60006DE070E084EB99E00E947C10892B49F492
:105A70000E94111381E080934A0780934907109296
:105A800094030E944E1880915D03811133C00E94DF
:105A90004318811104C00E9473170E94471788E0C1
:105AA00090E00E94CF3560933D0570933E05809352
:105AB0003F05909340056E7F71F40E94471788E080
:105AC00090E00E94CF3560933D0570933E05809332
:105AD0003F05909340050E94CD0B1092B803809132
